:02000002D0002C
:1040000000400D00D4520D00000006000D00050117
:084010000401DB0700000000C1
:04401800F84F0D0050
:10401C0009480A49884208B505D0094A824202D0AB
:10402C00121A00F0A1FF0748074A0021121A00F0EB
:10403C00A9FF014808BD00BFC8E5032044520D008C
:10404C0030E6032030E60320F0E7032070B5074E7E
:10405C00074C00F0C7FCA41BA4080025A54200D106
:10406C0070BD56F8043B98470135F7E710520D0028
:10407C0034520D0000F078B808B500F0B5F8BDE882
:10408C00084000F071BC00F05FBA00F065BA00782F
:10409C00B0FA80F04009704701230370704710B5E7
:1040AC000446006808B100F057FA204610BD0EB463
:1040BC0003B503AB012153F8042B019300F0CFFBA4
:1040CC0002B05DF804EB03B07047002340681A4659
:1040DC00194600F0F1B9000010B504460430206018
:1040EC001022002100F04EFF01232375024B636068
:1040FC0000232372204610BD1000030038B504467F
:10410C00006928B185680C2100F01BFF2846F8E7F0
:10411C00204638BD70B5037D05460E46CBB103680D
:10412C00DB6823B19A88042A17D09B68F9E70C49FD
:10413C00102000F008FF044668B11022002100F0A6
:10414C0021FF084B23600423A3802B692C61C4E955
:10415C000236284670BD2875FBE7DE60F9E700BF24
:10416C000C520D001000030008B500F04FFDBDE827
:10417C0008404FF4165100F03DBD000010B5041E70
:10418C008AB005DC00F042FD1549FFF790FF0A24C8
:10419C0000F03CFD3C231349B4FBF3F203FB124348
:1041AC00FFF785FF04A8FFF797FF9DF8243013B1A4
:1041BC0002238DF818304FF47A71614304A8FFF78D
:1041CC00A9FF01A804A900F053FA019808B100F066
:1041DC00C3F904A8FFF792FF01200AB010BD00BF7D
:1041EC000C500D0041500D0030B54FF47A7085B075
:1041FC0000F078FB00F00AFD1A4900F0FFFA00F01D
:10420C0005FD194900F0FAFA00F068F800F07CF9A5
:10421C0000F0FCFC044600F07FF9144902462046ED
:10422C00FFF745FF00F078F9A8B100F0EFFC104D56
:10423C00104900F0E3FA002401A8CDE901448DF8FF
:10424C000C4000F001FC68682246022100F01CF9C9
:10425C002846FFF73AFF4FF49670FFF78FFF05B033
:10426C0030BD00BF6B500D007A500D0080500D001A
:10427C0094E6032096500D0010B5094C00232360E2
:10428C00A380A3710320A3F58033A36000F0BEF8D4
:10429C002046044A0449BDE8104000F04DBE00BF62
:1042AC0034E6032030E60320AB400D0008B5024B8A
:1042BC001B689B68019308BD6802030008B5024B9C
:1042CC001B68DB68019308BD6802030008B5024B4C
:1042DC001B685B68019308BD1802030008B5024B0C
:1042EC001B685B69019308BD1802030008B5024BFB
:1042FC001B685B6C019308BD4802030008B5024BB8
:10430C001B689B6C019308BD4802030008B5024B67
:10431C001B685B69019308BD6402030008B5024B7E
:10432C001B681B68019308BD3C02030008B5024BD7
:10433C001B68DB68019308BD3C02030008B5024B07
:10434C001B681B69019308BD3C02030008B5024BB6
:10435C001B685B69019308BD3C02030008B5024B66
:10436C001B689B69019308BD3C02030008B5024B16
:10437C001B68DB69019308BD3C02030008B5024BC6
:10438C001B689B6A019308BD3C02030008B5024BF5
:10439C001B681B68019308BD4C02030008B5024B57
:1043AC001B685B68019308BD4C02030008B5024B07
:1043BC001B681B69019308BD4C02030008B5024B36
:1043CC001B685B69019308BD4C02030008B5024BE6
:1043DC001B689B69019308BD4C02030008B5024B96
:1043EC001B68DB69019308BD4C02030008B5024B46
:1043FC001B681B6A019308BD4C02030008B5024BF5
:10440C001B681B6D019308BD6002030008B5024BCD
:10441C001B685B68019308BD2002030008B5024BC2
:10442C001B685B69019308BD2002030008B5034BB0
:10443C001B68D3F88830019308BD000020020300EC
:10444C0008B5034B1B68D3F89430019308BD0000EA
:10445C002002030008B5034B1B68D3F8AC30019362
:10446C0008BD00002002030008B5024B1B685B6806
:10447C00019308BD4002030008B5024B1B689B6802
:10448C00019308BD4002030008B5024B1B68DB68B2
:10449C00019308BD4002030008B5024B1B681B6961
:1044AC00019308BD4002030008B5024B1B685B6911
:1044BC00019308BD4002030008B5024B1B689B69C1
:1044CC00019308BD4002030008B5024B1B68DB6971
:1044DC00019308BD4002030008B5024B1B681B6A20
:1044EC00019308BD4002030008B5024B1B681B6B0F
:1044FC00019308BD4002030008B5024B1B685B6BBF
:10450C00019308BD4002030008B5024B1B68DB6831
:10451C00019308BD4402030008B5024B1B685B699C
:10452C00019308BD4402030008B5024B1B68DB6B0A
:10453C00019308BD4402030008B5024B1B685B6C79
:10454C00019308BD4402030008B5024B1B681B68AD
:10455C00019308BD1C02030008B5024B1B685B6885
:10456C00019308BD1C02030008B5024B1B685B6A73
:10457C00019308BD1C02030008B5024B1B685B6C61
:10458C00019308BD1C020300002240681146FFF78E
:10459C00A3BF002240681146FFF7AEBF406800225F
:1045AC00FFF7A2BF4068002281F00101FFF78CBF2A
:1045BC00002340681A461946FFF77EBF0023406867
:1045CC001A461946FFF770BF002240681146FFF7E4
:1045DC0063BF002240681146FFF74EBF40680022BF
:1045EC000221FFF751BF002340681A46FFF73CBF7A
:1045FC00024B03225A60024A1A60704740E60320BD
:10460C00B4500D0010B50446006818B1FFF7A4FFB4
:10461C000023236010BD38B5B1F9043083800B46FC
:10462C000D4653F8062FC0F806209B88438104469C
:10463C00FFF7E8FF2B6813B1236000232B602046A3
:10464C0038BD000038B50C460546FFF7DBFF44B11A
:10465C002088FFF779FF286028B12288214600F0D6
:10466C0083FC002038BD0148FCE700BFFCFEFFFFC7
:10467C00F0B52D4D0B7D04468BB00846AF1D002BBD
:10468C0038D00B681B79002B34D00022274B0493B5
:10469C0002A904300292ADF80C208DF80E20FFF721
:1046AC00D9FEDDF80E30C5F8063000B2BDF8123078
:1046BC00ADF80C00A8800299BB802846FFF7C2FF1A
:1046CC0002A8FFF79FFF00232360A380A37123811F
:1046DC004FF6FF736381B5F90430A3803B68C4F8CF
:1046EC000630BB88296863812046FFF7ABFF204664
:1046FC000BB0F0BD00262023CDE902360C4B009305
:10470C000C49334602AA3220FFF778FE074B04937C
:10471C0002A94FF6F263044802968DF80E60ADF8CC
:10472C000C30FFF778FFCBE748E603200000FFFFD3
:10473C00E7500D00E0500D0010B5094B094C02225A
:10474C0000201A60084B2060A080A071A360FFF7C6
:10475C005DFE2046054A0649BDE8104000F0ECBB62
:10476C0054E6032048E603200000FFFF30E6032058
:10477C00AB400D0010B50446006808B1FFF7BEFD54
:10478C00204610BD10B5064C002320462360FFF7D1
:10479C00ADFD2046034A0449BDE8104000F0CCBBF7
:1047AC0058E6032030E6032081470D00F8B5064695
:1047BC000D468F180024BD420CD0336815F8011B30
:1047CC009B6830469847031E01DB1C44F3E7002C22
:1047DC0008BF1C462046F8BD13B50446084659B11F
:1047EC00019100F0FBFB23680199DB68024620462F
:1047FC0002B0BDE81040184702B010BD08B5FFF775
:10480C00EBFF08BD03689B68184738B50D210546BA
:10481C00FFF7F8FF0A2104462846FFF7F3FF204470
:10482C0038BD30B58BB000238DF82430012A98BFE9
:10483C000A2209AC0D46B1FBF2F101FB125303F055
:10484C00FF03092B94BF30333733DBB2AA4204F891
:10485C00013DEFD92146FFF7BFFF0BB030BD2DE96D
:10486C00F04186B000AF05460E46381D14211446A3
:10487C003B60FFF779FE13280ED8391D2846FFF749
:10488C00ABFF04461EB12846FFF7BFFF0444204689
:10489C001837BD46BDE8F08100F1080323F007038B
:1048AC00E846ADEB030D2246411C3B686846FFF71A
:1048BC005BFE69462846FFF78FFF0446C546E1E7D5
:1048CC00014B024A1A6070475CE603200E510D0042
:1048DC00024B1A68024B1A60704700BFC8E50320F0
:1048EC0060E603200021FFF799BD10B583680446EC
:1048FC0013B1032201469847204610BD10B504465B
:10490C00FFF7F3FF204610BD0348044A0449002377
:10491C00836000F011BB00BF64E6032030E6032087
:10492C0009490D00014B1860704700BFCCE503200E
:10493C0008B50B4B43B100F069F903681B69984744
:10494C00002801DDAFF30080064B43B100F022FAE2
:10495C0003681B699847002801DDAFF3008008BD90
:10496C00000000000000000008B5FFF7E1FFFFF7B2
:10497C00B5FC014B186008BDECE703200248034A64
:10498C000349121A00F0F0BA00F4032004F40320D7
:10499C0040520D0007B5002300931A466FF07701C3
:1049AC00FFF74EFD03B05DF804FB000007B543882C
:1049BC000A2B08D0502B0BD1094B1B684BB103B001
:1049CC005DF804EB1847FFF7E5FF03B05DF804FB57
:1049DC00002300931A466FF07701FFF731FDF4E7DF
:1049EC0078E6032038B5124C1248134D0021FFF71E
:1049FC00C3FD2368AB42114B0CBF012200221A707D
:104A0C0002D0FFF7BBFF2560FFF760FC044600F007
:104A1C00C1FA0B4B13B12046AFF3008000210848BC
:104A2C00FFF782FDBDE8384006480021FFF7FEBCC9
:104A3C0000F4032031490D001E1C279A74E6032054
:104A4C0000000000B9490D0007B50823ADF800308F
:104A5C0003688DF80230037A8DF803300021436827
:104A6C0001936846FFF768FD03B05DF804FB7047DF
:104A7C0010B51821044600F064FA204610BDF0B5BC
:104A8C00037D062B8DB00E4600F104074FF0000499
:104A9C0012D000F1080515F8011D0A223046FFF767
:104AAC00C0FEAF42044419D0002CF4D02E21304665
:104ABC00FFF7A8FE0444EEE72F236A4639460A2086
:104ACC008DF80040FFF722FC684600F087FA336847
:104ADC000246DB68694630469847044620460DB0CE
:104AEC00F0BD000010B5054B0446112240F8043B04
:104AFC00002100F047FA204610BD00BF38510D00D0
:104B0C000346074A10B543F8042B01F1100251F883
:104B1C00044B43F8044B9142F9D10A781A7010BD3A
:104B2C0038510D0010B59DF8084044EA032343EAC0
:104B3C00024242EA016104234160037510BD13B5C2
:104B4C00CB7800938B784A780978FFF7EBFF02B0AB
:104B5C0010BD41747047704708B50021007CFFF709
:104B6C0035FC40EAE07008BD08B50121007CFFF778
:104B7C002DFC40EAE07008BD08B5007CFFF71EFC78
:104B8C0020EAE07008BD08B5007CFFF70FFC20EAB6
:104B9C00E07008BD13B50446007C0191FFF70EFCD4
:104BAC000028019901DC607C20B1207CFFF716FC09
:104BBC0020EAE07002B010BD007CFFF717BC10B506
:104BCC001421044600F0BDF9204610BD10B54FF479
:104BDC007A73044608460021C4E90113044B236090
:104BEC000123207463741146FFF7D0FB204610BDDF
:104BFC004C510D00007C0022FFF7D0BB10B51422E5
:104C0C000446002100F0BEF9204610BD10B5104C32
:104C1C0088B003A8FFF7F2FF2178BFF35B8F11F088
:104C2C00010111D120460191FFF731FA019958B1D8
:104C3C0003AA0848FFF7CAFF2046FFF72DFA064AD9
:104C4C000649044800F078F9024808B010BD00BFCE
:104C5C007CE6032080E6032030E60320634B0D0046
:104C6C00002240681146FFF717BC0022406811462D
:104C7C00FFF732BC002240681146FFF73DBC40688C
:104C8C000022FFF731BC4068002281F00101FFF7E0
:104C9C001BBC002340681A461946FFF705BC0022CE
:104CAC0040681146FFF7E8BB406800220221FFF77D
:104CBC00EBBB002340681A46FFF7D6BB084B10B578
:104CCC00282422461846002100F05CF9054B04808C
:104CDC004FF0FF32426004225A60034A1A6010BD42
:104CEC009CE6032094E603207C510D007047417430
:104CFC00704708B5007CFFF741FB20EAE07008BD67
:104D0C0008B5007CFFF71AFB20EAE07008BD08B577
:104D1C00007CFFF723FB40EAE07008BD08B5007C7F
:104D2C00FFF714FB40EAE07008BD007CFFF71EBBE8
:104D3C0037B5457C04462DB1207C03B0BDE830402E
:104D4C00FFF7F4BA007C0191FFF718FB00280199DA
:104D5C00F2DC284603B030BD10B51421044600F037
:104D6C00F0F8204610BD000010B54FF0000C0446C2
:104D7C00084611464FF47A72C4E901C2044A226013
:104D8C000122207462741A46FFF7C8FA204610BD3F
:104D9C00B0510D0013B50E4C2178BFF35B8F11F0A1
:104DAC00010112D120460191FFF771F9019960B10F
:104DBC00084A094B0948FFF7D7FF2046FFF76CF963
:104DCC00074A0849054800F0B7F8044802B010BD7E
:104DDC00C4E60320C8E603204CE70320D0E70320F9
:104DEC0030E60320F94C0D00002340681A46FFF70B
:104DFC003BBB406800220221FFF746BB0022406803
:104E0C001146FFF739BB002240681146FFF744BB3F
:104E1C00002340681A461946FFF746BB002340683A
:104E2C001A461946FFF748BB4068002281F0010181
:104E3C00FFF74ABB40680022FFF756BB00224068D0
:104E4C001146FFF759BB002240681146FFF744BBDF
:104E5C002DE9F043002495B016460D460746FFF7A2
:104E6C0041FE214618220EA8009400F08BF8402336
:104E7C00CDE90C3421466B460CAA3046FFF71EFADE
:104E8C000446002846D1024601216868FFF704FB5E
:104E9C000221804622466868FFF7FEFA009E814692
:104EAC002146002E36D0002934D17368022B03D052
:104EBC000A2B0BD0F669F4E7B8F1000F04D0716936
:104ECC0038460431FFF73BFE4146F3E7B9F1000FDA
:104EDC0001D14946EEE77469102201A800F052F89E
:104EEC0006238DF8143001AD04F10803183418684A
:104EFC0059682A4603C20833A3421546F7D101A9C3
:104F0C0006A807ADFFF7FCFD0FCD3C1D0FC42B68A9
:104F1C002370DEE70098FFF7C9F9384615B0BDE8F5
:104F2C00F0830000024B034A1A6000225A6070475B
:104F3C00E4E70320E0510D000B460146184600F053
:104F4C0005B8FFF7A2B8FFF79EB8000010B5054CE6
:104F5C0013462CB10A4601460220AFF3008010BD67
:104F6C002046FCE7000000000A44914200F1FF33A8
:104F7C0000D1704710B511F8014B03F8014F914265
:104F8C00F9D110BD02440346934200D1704703F897
:104F9C00011BF9E738B50D4B1D68AB6B04467BB9AB
:104FAC001820FFF7D1FA0A4A0A4BA863C0E900237C
:104FBC00094B83600B23838101220023C0E9042366
:104FCC00AB6B00221C615A6138BD00BFCCE50320DD
:104FDC000E33CDAB34126DE6ECDE0500034613F850
:104FEC00012B002AFBD1181A013870471D400D0007
:104FFC0059400D0081400D0085400D00000000005F
:10500C005A65726F20736C6565702074696D652CC0
:10501C002061646A757374696E6720746F20313017
:10502C00207365636F6E647320736C656570207498
:10503C00696D652E00476F696E6720746F20736C05
:10504C0065657020666F72202564206D696E7574BD
:10505C006573202564207365636F6E64732E003D49
:10506C003D3D3D204C4F4F50203D3D3D3D00737428
:10507C00617274005061727469636C65205265745E
:10508C0075726E65643A202569007475726E2065C0
:10509C00766572797468696E67206F6666000000C9
:1050AC000000000000000000F3450D00E9450D0074
:1050BC00DF450D00D5450D00C9450D00BD450D0062
:1050CC00B1450D00A9450D009F450D0095450D00FE
:1050DC005D4E0D00776972696E6700537973746564
:1050EC006D20736C65657020636F6E666967757291
:1050FC006174696F6E20697320696E76616C696486
:10510C002E006170700025592D256D2D25645425B8
:10511C00483A254D3A2553257A0061736374696DBD
:10512C006500000000000000000000008B4A0D002C
:10513C007B4A0D007D4A0D000000000000000000BD
:10514C00634B0D00CB4B0D00A14B0D00B9470D006F
:10515C00934B0D00654B0D00754B0D00C54B0D00B1
:10516C00854B0D005F4B0D0000000000000000009F
:10517C00BF4C0D00B54C0D00AB4C0D006D4C0D0033
:10518C009F4C0D00D7400D00934C0D008B4C0D0027
:10519C00814C0D00774C0D005D4E0D0000000000A1
:1051AC0000000000F94C0D00654D0D003D4D0D004B
:1051BC00B9470D000D4D0D00294D0D001B4D0D0077
:1051CC00374D0D00FB4C0D00FF4C0D000000000096
:1051DC0000000000F54D0D00FF4D0D00094E0D00B7
:1051EC00134E0D001D4E0D00294E0D00354E0D00B9
:1051FC00414E0D00494E0D00534E0D005D4E0D00FD
:10520C000000000085420D00FD450D0045470D00D6
:10521C0091470D00CD480D00DD480D0015490D00DE
:10522C00C94C0D00314F0D000000000000000000C3
:04523C00000000006E
:04524000000000006A
:1052440026510D00D0E503200000000000000000FE
:10525400000000000000000000000000000000004A
:10526400000000000000000000000000000000003A
:10527400000000000000000000000000000000002A
:10528400000000000000000000000000000000001A
:10529400000000000000000000000000000000000A
:0852A400000000000000000002
:1052AC00FFFFFFFF00000102030405060708090ABF
:1052BC000B0C0D0E0F101112131415161718191ABA
:0852CC001B1C1D1E1F20280001
:0452D40078563412C2
:04000003D000401CCD
:00000001FF
