:02000002D0002C
:1040000000400D00C45D0D00000006000D0005011C
:084010000401DB0700000000C1
:04401800485A0D00F5
:10401C0009480A49884208B505D0094A824202D0AB
:10402C00121A01F0A3FC0748074A0021121A01F0EA
:10403C00ABFC014808BD00BFC4E50320345D0D0096
:10404C002CE603202CE60320F0E7032070B5074E86
:10405C00074C00F017FFA41BA4080025A54200D1B3
:10406C0070BD56F8043B98470135F7E7005D0D002D
:10407C00245D0D0000F03DB808B500F031F9BDE845
:10408C00084000F0C1BE00F039BB00F03FBB007827
:10409C00B0FA80F04009704701230370704710B5E7
:1040AC000446006808B100F031FB204610BD0EB488
:1040BC0003B503AB002153F8042B019300F00DFE64
:1040CC0002B05DF804EB03B070470EB403B503AB5C
:1040DC00012153F8042B019300F0FFFD02B05DF8B1
:1040EC0004EB03B07047002340681A46194600F0F1
:1040FC00ADBA08B501F076FABDE808404FF4165198
:10410C0001F064BAF0B5051E8BB005DC01F06AFA5B
:10411C002449FFF7DAFF0A2501F064FA3C2322490F
:10412C00B5FBF3F203FB1253FFF7CFFF05AB049380
:10413C00012300268DF824301C4F1D49ADF8196061
:10414C0002231020CDE907668DF81B6005978DF8CA
:10415C00183001F0F8FB0446E8B11022314601F0AA
:10416C0013FC04234FF47A70A3804543089B27600B
:10417C00A360E560089401A804A900F06BFB01980A
:10418C0008B100F0C3FA089840B184680C2101F022
:10419C00D8FB2046F8E78DF82400ECE701200BB0A3
:1041AC00F0BD00BF5C5A0D00915A0D0010000300C9
:1041BC00FC5C0D002DE9F041234DDFF8A48007468F
:1041CC0001F010FA2149FFF772FF00231A46194635
:1041DC00686800F033FA01F005FA1D49FFF767FF34
:1041EC00002319461A46686800F008FA01F0FAF93B
:1041FC001849FFF75CFF002400226868114600F0A4
:10420C0015FA0646C8B9013401F0ECF922464146CC
:10421C00FFF75BFFBC420BDB01F0E4F90E49FFF743
:10422C0054FF0948FFF75FFF34462046BDE8F08194
:10423C004FF47A7000F094FDDEE701F0D3F90749F2
:10424C00FFF743FFF1E700BF94E60320BB5A0D00D4
:10425C00D75A0D00DF5A0D00F35A0D001A5B0D00F2
:10426C00F05A0D00F8B5064601F0BCF91749184F85
:10427C00FFF71DFF00F01AFA002400F01FFA0546A4
:10428C00E8B900F0E5F80134386000F007FAB44200
:10429C0010DB104C01F0A6F90F49FFF716FF606810
:1042AC002A46022100F0BAF92046FFF71CFF2C46E3
:1042BC002046F8BD4FF47A7000F052FDDDE701F0B6
:1042CC0091F90649FFF701FFF2E700BF1E5B0D00F5
:1042DC00ECE7032094E60320375B0D001A5B0D001E
:1042EC0030B54FF47A7093B000F03AFD01F07AF9E2
:1042FC00364900F0C1FC1420FFF75CFF051E5FDDA2
:10430C001420FFF7AFFF041E5ADD31490AA800F054
:10431C00C0FB0A22294606A800F0FBFB06A90AA846
:10432C0000F021FC2B4900F02AFC0A22214605460C
:10433C000EA800F0EEFB0EA9284600F014FC014676
:10434C0002A800F0C9FB0EA800F058FB06A800F06C
:10435C0055FB0AA800F052FB1F4B029A1B788DF8F4
:10436C0000301E493C230EA800F0F8FE0F9C7CB1D7
:10437C006368013B63605BB9236820469B68984780
:10438C00A368013BA3601BB923682046DB689847F0
:10439C00134D4FF47A7000F0E3FC00240EA8CDE925
:1043AC000E448DF8404000F0E4FD6868224602217E
:1043BC0000F034F92846FFF796FE02A800F01EFB29
:1043CC003C20FFF79FFE13B030BD00BF525B0D00C9
:1043DC00615B0D00685B0D003CE60320735B0D0018
:1043EC0094E6032010B50A4B0A4C01221A700023E4
:1043FC002360A380A3710320A3F58033A36000F096
:10440C00BFF82046044A0549BDE8104001F094BAB3
:10441C003CE6032030E603202CE60320AB400D00E5
:10442C0008B5024B1B689B68019308BD680203002A
:10443C0008B5024B1B68DB68019308BD68020300DA
:10444C0008B5024B1B685B68019308BD180203009A
:10445C0008B5024B1B685B69019308BD1802030089
:10446C0008B5024B1B685B6C019308BD4802030046
:10447C0008B5024B1B689B6C019308BD48020300F6
:10448C0008B5024B1B685B69019308BD640203000D
:10449C0008B5024B1B681B68019308BD3C02030066
:1044AC0008B5024B1B68DB68019308BD3C02030096
:1044BC0008B5024B1B681B69019308BD3C02030045
:1044CC0008B5024B1B685B69019308BD3C020300F5
:1044DC0008B5024B1B689B69019308BD3C020300A5
:1044EC0008B5024B1B68DB69019308BD3C02030055
:1044FC0008B5024B1B689B6A019308BD3C02030084
:10450C0008B5024B1B681B68019308BD4C020300E5
:10451C0008B5024B1B685B68019308BD4C02030095
:10452C0008B5024B1B681B69019308BD4C020300C4
:10453C0008B5024B1B685B69019308BD4C02030074
:10454C0008B5024B1B689B69019308BD4C02030024
:10455C0008B5024B1B68DB69019308BD4C020300D4
:10456C0008B5024B1B681B6A019308BD4C02030083
:10457C0008B5024B1B681B6D019308BD600203005C
:10458C0008B5024B1B685B68019308BD2002030051
:10459C0008B5024B1B685B69019308BD2002030040
:1045AC0008B5024B1B68DB6C019308BD20020300AD
:1045BC0008B5024B1B685B6D019308BD200203001C
:1045CC0008B5034B1B68D3F88830019308BD000075
:1045DC002002030008B5034B1B68D3F894300193F9
:1045EC0008BD00002002030008B5034B1B68D3F87C
:1045FC00AC30019308BD00002002030008B5024B4B
:10460C001B685B68019308BD4002030008B5024BB0
:10461C001B689B68019308BD4002030008B5024B60
:10462C001B68DB68019308BD4002030008B5024B10
:10463C001B681B69019308BD4002030008B5024BBF
:10464C001B685B69019308BD4002030008B5024B6F
:10465C001B689B69019308BD4002030008B5024B1F
:10466C001B68DB69019308BD4002030008B5024BCF
:10467C001B681B6A019308BD4002030008B5024B7E
:10468C001B681B6B019308BD4002030008B5024B6D
:10469C001B685B6B019308BD4002030008B5024B1D
:1046AC001B689B68019308BD4402030008B5024BCC
:1046BC001B68DB68019308BD4402030008B5024B7C
:1046CC001B685B69019308BD4402030008B5024BEB
:1046DC001B681B6A019308BD4402030008B5024B1A
:1046EC001B68DB6B019308BD4402030008B5024B49
:1046FC001B685B6C019308BD4402030008B5024BB8
:10470C001B681B68019308BD1C02030008B5024B13
:10471C001B685B68019308BD1C02030008B5024BC3
:10472C001B689B68019308BD1C02030008B5024B73
:10473C001B685B6A019308BD1C02030008B5024BA1
:10474C001B68DB6A019308BD1C02030008B5024B11
:10475C001B681B6B019308BD1C02030008B5024BC0
:10476C001B685B6C019308BD1C02030000224068AF
:10477C001146FFF77BBF002240681146FFF786BF4A
:10478C0040680022FFF77ABF4068002281F00101E7
:10479C00FFF764BF002340681A461946FFF756BF5F
:1047AC00002340681A461946FFF748BF00224068AC
:1047BC001146FFF73BBF002240681146FFF726BFAA
:1047CC00406800220221FFF729BF002340681A46E7
:1047DC00FFF714BF024B03225A60024A1A6070475B
:1047EC0040E60320885B0D0010B50446006818B144
:1047FC00FFF78CFF0023236010BD38B5B1F90430EE
:10480C0083800B460D4653F8062FC0F806209B8874
:10481C0043810446FFF7E8FF2B6813B123600023A4
:10482C002B60204638BD000038B50C460546FFF716
:10483C00DBFF44B12088FFF761FF286028B1228894
:10484C00214601F093F8002038BD0148FCE700BF79
:10485C00FCFEFFFFF0B52D4D0B7D04468BB00846DA
:10486C00AF1D002B38D00B681B79002B34D00022E5
:10487C00274B049302A904300292ADF80C208DF85A
:10488C000E20FFF7B1FEDDF80E30C5F8063000B291
:10489C00BDF81230ADF80C00A8800299BB802846F8
:1048AC00FFF7C2FF02A8FFF79FFF00232360A3803E
:1048BC00A37123814FF6FF736381B5F90430A38094
:1048CC003B68C4F80630BB88296863812046FFF733
:1048DC00ABFF20460BB0F0BD00262023CDE90236FD
:1048EC000C4B00930C49334602AA3220FFF740FED2
:1048FC00074B049302A94FF6F263044802968DF815
:10490C000E60ADF80C30FFF778FFCBE748E60320DC
:10491C000000FFFFBB5B0D00B45B0D0010B5094B35
:10492C00094C022200201A60084B2060A080A07164
:10493C00A360FFF725FE2046054A0649BDE8104056
:10494C0000F0FABF54E6032048E603200000FFFF06
:10495C002CE60320AB400D0010B5044601F065F8C1
:10496C00013823182046834206D90278197800F8BA
:10497C00011B03F80129F6E710BD70B50C46911E1A
:10498C002229054622D820466DB1B5FBF2F602FB72
:10499C001655E9B2092D94BF30315731C9B200F820
:1049AC00011B3546F0E7024623443021934202D9DD
:1049BC0002F8011BFAE71A1A834238BF00220023BF
:1049CC0083542046FFF7C8FF204670BD0020FCE74B
:1049DC0038B5031E0C4615460EDAB3F1004F4FF0F6
:1049EC002D0214BF5842184601230A702A46194456
:1049FC00FFF7C3FF204638BD0123F9E710B5044685
:104A0C000068FFF783FE204610BD10B50446006811
:104A1C0008B1FFF77BFE0023C4E90133236010BD0E
:104A2C0038B504460D4600680131FFF777FE10B12A
:104A3C00C4E90005012038BD10B50368044623B154
:104A4C0043688B4201D3012010BD2046FFF7E8FFDD
:104A5C000028F9D0A368002BF5D122681370F2E777
:104A6C0037B50D46114601920446FFF7E5FF019A52
:104A7C0028B92046FFF7C9FF204603B030BDA2601D
:104A8C002946206800F072FF2268A3680021D154E7
:104A9C00F2E7002313B5C0E90033044683600373C7
:104AAC0041B10846019100F0C0FF01990246204631
:104ABC00FFF7D6FF204602B010BD884210B5044661
:104ACC0005D00B682BB18A681946FFF7C9FF204641
:104ADC0010BDFFF79AFFFAE710B500230446C0E9B2
:104AEC00003383600373FFF7E8FF204610BD13B556
:104AFC00044659B10846019100F097FF019902460E
:104B0C002046FFF7ADFF204602B010BDFFF77DFF3A
:104B1C00F9E710B504468AB00023C4E90033A3605A
:104B2C002373084601A9FFF753FF01A92046FFF79D
:104B3C00DEFF20460AB010BD70B505460E4609B919
:104B4C00002070BD6AB1846814442146FFF774FFDD
:104B5C000028F5D02868AB683146184400F040FFB7
:104B6C00AC600120EDE710B58A6809680446FFF7D0
:104B7C00E3FF10B92046FFF748FF204610BD13B5E0
:104B8C00044629B92046FFF740FF204602B010BD6D
:104B9C000846019100F049FF019902462046FFF7B3
:104BAC00CBFF0028EED0F0E710B5036804469B68F5
:104BBC009847A368013BA3602BB923682046DB68A8
:104BCC00BDE81040184710BD10B50446006808B188
:104BDC00FFF74EFC204610BD0B68036013B15A68FA
:104BEC0001325A60704710B50446006828B143681A
:104BFC00013B43600BB9FFF7D7FF204610BD000007
:104C0C0010B5064C002320462360FFF729FC2046F4
:104C1C00034A0449BDE8104000F08EBE58E603205C
:104C2C002CE60320D54B0D00F8B506460D468F1823
:104C3C000024BD420CD0336815F8011B9B6830462C
:104C4C009847031E01DB1C44F3E7002C08BF1C46ED
:104C5C002046F8BD13B50446084659B1019100F041
:104C6C00E4FE23680199DB680246204602B0BDE8E9
:104C7C001040184702B010BD08B5FFF7EBFF08BD98
:104C8C0003689B68184738B50D210546FFF7F8FFF8
:104C9C000A2104462846FFF7F3FF204438BD30B5FF
:104CAC008BB000238DF82430012A98BF0A2209AC5E
:104CBC000D46B1FBF2F101FB125303F0FF03092B7C
:104CCC0094BF30333733DBB2AA4204F8013DEFD93D
:104CDC002146FFF7BFFF0BB030BD2DE9F04186B088
:104CEC0000AF05460E46381D142114463B60FFF7F5
:104CFC001DFD13280ED8391D2846FFF7ABFF0446BF
:104D0C001EB12846FFF7BFFF044420461837BD46A6
:104D1C00BDE8F08100F1080323F00703E846ADEB92
:104D2C00030D2246411C3B686846FFF7FFFC6946B1
:104D3C002846FFF78FFF0446C546E1E7014B024AC0
:104D4C001A6070475CE60320E25B0D00024B1A68A8
:104D5C00024B1A60704700BFC4E5032060E60320D5
:104D6C000021FFF715BC10B58368044613B103226C
:104D7C0001469847204610BD10B50446FFF7F3FFD7
:104D8C00204610BD13B50B460246D0E900016C4617
:104D9C0084E8030093E8030082E8030094E803002E
:104DAC0083E8030002B010BD0348044A0449002301
:104DBC00836000F0C1BD00BF64E603202CE6032035
:104DCC00854D0D00014B1860704700BFC8E50320EE
:104DDC0008B50B4B43B100F005FC03681B69984701
:104DEC00002801DDAFF30080064B43B100F0BEFCA0
:104DFC0003681B699847002801DDAFF3008008BDEC
:104E0C00000000000000000008B5FFF7E1FFFFF70D
:104E1C001FFB014B186008BDECE703200248034A56
:104E2C000349121A00F0A2BD00F4032004F403207D
:104E3C00305D0D0007B5002300931A466FF0770123
:104E4C00FFF7C8FB03B05DF804FB000007B543880F
:104E5C000A2B08D0502B0BD1094B1B684BB103B05C
:104E6C005DF804EB1847FFF7E5FF03B05DF804FBB2
:104E7C00002300931A466FF07701FFF7ABFBF4E7C2
:104E8C0078E6032038B5124C1248134D0021FFF779
:104E9C0065FC2368AB42114B0CBF012200221A7037
:104EAC0002D0FFF7BBFF2560FFF7CAFA044600F0FB
:104EBC0073FD0B4B13B12046AFF300800021084863
:104ECC00FFF70CFCBDE8384006480021FFF778BB23
:104EDC0000F40320D14D0D001E1C279A74E603200C
:104EEC0000000000594E0D0070470020704710B5AF
:104EFC001021044600F025FD204610BD08B5FFF733
:104F0C00F6FF08BD30B500224FF69C740260848019
:104F1C008D888C800C68858004600A6030BD10B56B
:104F2C0004460068FFF7F2FB204610BD38B5C46894
:104F3C00F4B12378022B03D104F10C00FFF7EFFF3F
:104F4C00656835B12846FFF70EFF1021284600F0A2
:104F5C00F8FCA56835B12846FFF705FF1021284657
:104F6C0000F0EFFC20461421BDE8384000F0E9BC0D
:104F7C0038BD07B50823ADF8003003688DF8023052
:104F8C00037A8DF803300021436801936846FFF7DC
:104F9C00ADFB03B05DF804FB73B50E46044656F842
:104FAC00043B00930D4601A83146FFF715FE019A0C
:104FBC00009B6260236001A8002301930093FFF71C
:104FCC0012FE3046FFF70FFE2846082100F0B9FC10
:104FDC00204602B070BD826810B50AB900F0B5FC6D
:104FEC00BDE81040C368184708B5006800F110010F
:104FFC00FFF7F1FF08BD826810B50AB900F0A5FCF7
:10500C00BDE81040C368184708B5006800F11001EE
:10501C00FFF7F1FF08BD000038B50023044603601C
:10502C0010200D46FFF72FF828B10123C0E90133FA
:10503C00024B0360C5602060204638BD0C5C0D003F
:10504C0038B5002383608B6804460D462BB10222D1
:10505C009847EB68E360AB68A360204638BD00005E
:10506C00F0B589B004686846FFF74CFF4FF00203B7
:10507C00D4E84F2F002A03D1C4E8413F0029F7D1CF
:10508C0025D104F10C0569462846FFF73BFFBFF319
:10509C005B8F01236370002004F10803BFF35B8F67
:1050AC0053E8006F43E80002002AF9D1BFF35B8F8D
:1050BC006EB1FFF775FA78B129463046FFF78BFFD2
:1050CC003046FFF750FE1021304600F03AFC68469F
:1050DC00FFF725FF09B0F0BD314602A8FFF7B0FF7E
:1050EC00E068B4F9105008B100F082FC0690102072
:1050FC00ADF81C50FEF7C7FF0546E8B100278760E6
:10510C001820FEF7C0FF044688B10146876002A84C
:10511C00FFF738FE049BA268A360059B049206A9C6
:10512C00E268E36004F110000592FFF7EBFE084B18
:10513C00EB60084B2C60AB6006A8FFF7F0FE02A8F2
:10514C00FFF711FE002229460348FFF731FAB7E7B3
:10515C00F54F0D008D520D00CD570D002DE9F04788
:10516C008AB005469DF848900C4617469846FFF7BE
:10517C00A5FA07AE824638BB4FF62E73059005A9EB
:10518C003046ADF81830FFF7BDFE1420FEF77BFF5C
:10519C00044648B1022303700123C0E901AA4370FD
:1051AC0031460C30FFF7AEFE2846214640F8044B42
:1051BC00FFF732FF3046FFF7B2FE05A8FFF7AFFE50
:1051CC0028460AB0BDE8F0870C234FF0000A1420E3
:1051DC00CDE908AA0793FEF756FF014628B1C0E9AE
:1051EC0001AA80F800A080F801A004A80391FFF7A1
:1051FC0013FF224B08930820FEF745FF824628B187
:10520C00039B40F8043B04A9FFF7E6FC00965FFA09
:10521C0089F3424639462046CDF824A0FFF756FACA
:10522C00B8B9039B5B7803F0FF0293B94FF69C73FC
:10523C0005A903A80592ADF81830FFF711FF05A8D2
:10524C00FFF76DFE05A80999FFF7A6FE06A8FFF764
:10525C00CAFC039B059304A906A8FFF7BDFC059B9C
:10526C00069A2B606A60002306A806930593FFF745
:10527C00BAFC04A8FFF7B7FCA2E700BF51530D001E
:10528C00022AF8B5054607D0032A18D0012A01D105
:10529C000B6803600020F8BD18200E68FEF7F3FEC3
:1052AC00044650B13146FFF7CBFE3069B6F91470A5
:1052BC0008B100F09DFB2061A7822C60EAE704682E
:1052CC00002CE7D004F11000FFF729FE2046FFF771
:1052DC004AFD1821204600F034FBDBE738B50023EB
:1052EC0083608B6804460D462BB102229847EB680D
:1052FC00E360AB68A360204638BD022A70B5044653
:10530C0007D0032A12D0012A01D10B6803600020B8
:10531C0070BD14200E68FEF7B6FE054620B131466E
:10532C00FFF7DCFF337C2B742560F0E70468002C5E
:10533C00EDD02046FFF717FD1421204600F001FBAD
:10534C00E5E70000F0B589B004460D4601A811460A
:10535C00FFF722FEA4B124B21DB1284600F048FB91
:10536C00054601A803A90395ADF81040FFF778FE98
:10537C0003A8FFF7D4FD02A8FFF735FC09B0F0BD78
:10538C00019D0123D5E84F2F002A03D1C5E8413FE9
:10539C000029F7D1EFD12B73BFF35B8F6B702B1DF3
:1053AC00BFF35B8F53E8006F43E80042002AF9D14A
:1053BC00BFF35B8F002EDED02046FFF7F1F80746D7
:1053CC0060B105F10C013046FFF715FE3046FFF7D2
:1053DC00CAFC1021304600F0B4FACCE7314603A8E1
:1053EC00FFF77CFF2B7B8DF81C301020FEF74BFE5B
:1053FC000546D0B187601420FEF745FE044678B10F
:10540C008760014603A8FFF7BDFC059BA268A3605B
:10541C00069B0592E268E3609DF81C3006922374AB
:10542C00064BEB60064B2C60AB6003A8FFF79BFCB4
:10543C00002229460348FFF7BBF8C7E715500D00BB
:10544C0007530D00CD570D00704710B518210446B9
:10545C0000F077FA204610BDF0B5037D062B8DB019
:10546C000E4600F104074FF0000412D000F10805BD
:10547C0015F8011D0A223046FFF711FCAF42044417
:10548C0019D0002CF4D02E213046FFF7F9FB044440
:10549C00EEE72F236A4639460A208DF80040FEF7C6
:1054AC00EFFF684600F0C1FA33680246DB686946D4
:1054BC0030469847044620460DB0F0BD10B5054B5C
:1054CC000446112240F8043B002100F05DFA20460E
:1054DC0010BD00BF285C0D000346074A10B543F809
:1054EC00042B01F1100251F8044B43F8044B914288
:1054FC00F9D10A781A7010BD285C0D0010B59DF812
:10550C00084044EA032343EA024242EA01610423CD
:10551C004160037510BD13B5CB7800938B784A7836
:10552C000978FFF7EBFF02B010BD4174704770476C
:10553C0008B50021007CFFF703F840EAE07008BDD5
:10554C0008B50121007CFEF7FBFF40EAE07008BDC6
:10555C0008B5007CFEF7ECFF20EAE07008BD08B54A
:10556C00007CFEF7DDFF20EAE07008BD13B50446B1
:10557C00007C0191FEF7DCFF0028019901DC607CC6
:10558C0020B1207CFEF7E4FF20EAE07002B010BDF1
:10559C00007CFEF7E5BF10B51421044600F0D1F9EC
:1055AC00204610BD10B54FF47A730446084600210E
:1055BC00C4E90113044B2360012320746374114666
:1055CC00FEF79EFF204610BD3C5C0D00007C0022C7
:1055DC00FEF79EBF10B514220446002100F0D4F94A
:1055EC00204610BD10B5104C88B003A8FFF7F2FF91
:1055FC002178BFF35B8F11F0010111D1204601918D
:10560C00FEF745FD019958B103AA0848FFF7CAFFF8
:10561C002046FEF741FD064A0649044800F08CF985
:10562C00024808B010BD00BF7CE6032080E60320D2
:10563C002CE603203B550D00002240681146FEF776
:10564C00F5BF002240681146FFF710B800224068F1
:10565C001146FFF71BB840680022FFF70FB84068EF
:10566C00002281F00101FEF7F9BF002340681A46C1
:10567C001946FEF7E3BF002240681146FEF7C6BF8D
:10568C00406800220221FEF7C9BF002340681A4679
:10569C00FEF7B4BF084B10B528242246184600214B
:1056AC0000F072F9054B04804FF0FF324260042287
:1056BC005A60034A1A6010BD9CE6032094E603204E
:1056CC006C5C0D0070474174704708B5007CFEF7A8
:1056DC000FFF20EAE07008BD08B5007CFEF7E8FE7D
:1056EC0020EAE07008BD08B5007CFEF7F1FE40EA48
:1056FC00E07008BD08B5007CFEF7E2FE40EAE07001
:10570C0008BD007CFEF7ECBE37B5457C04462DB1D8
:10571C00207C03B0BDE83040FEF7C2BE007C019196
:10572C00FEF7E6FE00280199F2DC284603B030BDF6
:10573C0010B51421044600F004F9204610BD0000F9
:10574C0010B54FF0000C0446084611464FF47A721F
:10575C00C4E901C2044A22600122207462741A4610
:10576C00FEF796FE204610BDA05C0D0013B50E4C46
:10577C002178BFF35B8F11F0010112D1204601910A
:10578C00FEF785FC019960B1084A094B0948FFF7FF
:10579C00D7FF2046FEF780FC074A0849054800F071
:1057AC00CBF8044802B010BDC4E60320C8E60320C1
:1057BC004CE70320D0E703202CE60320D1560D0044
:1057CC0010B5836804460BB900F0BFF8C36898475E
:1057DC00A3681BB10322214620469847204610217E
:1057EC00BDE8104000F0ADB8002340681A46FEF743
:1057FC0005BF406800220221FEF710BF002240685E
:10580C001146FEF703BF002240681146FEF70EBF9B
:10581C00002340681A461946FEF710BF0023406863
:10582C001A461946FEF712BF4068002281F00101AA
:10583C00FEF714BF40680022FEF720BF002240682C
:10584C001146FEF723BF002240681146FEF70EBF3B
:10585C002DE9F043002495B016460D460746FFF798
:10586C002DFE214618220EA8009400F08DF840233E
:10587C00CDE90C3421466B460CAA3046FEF7D8FD18
:10588C000446002846D1024601216868FEF7CEFE88
:10589C000221804622466868FEF7C8FE009E8146BB
:1058AC002146002E36D0002934D17368022B03D048
:1058BC000A2B0BD0F669F4E7B8F1000F04D071692C
:1058CC0038460431FFF727FE4146F3E7B9F1000FE4
:1058DC0001D14946EEE77469102201A800F054F892
:1058EC0006238DF8143001AD04F108031834186840
:1058FC0059682A4603C20833A3421546F7D101A9B9
:10590C0006A807ADFFF7E8FD0FCD3C1D0FC42B68B3
:10591C002370DEE70098FEF783FD384615B0BDE82E
:10592C00F0830000024B034A1A6000225A60704751
:10593C00E4E70320D05C0D000B460146184600F04E
:10594C0007B8FEF7A2BBFEF79EBB08B5FEF7F6FE46
:10595C0010B5054C13462CB10A4601460220AFF394
:10596C00008010BD2046FCE7000000000A44914274
:10597C0000F1FF3300D1704710B511F8014B03F85B
:10598C00014F9142F9D110BD02440346934200D11C
:10599C00704703F8011BF9E738B50D4B1D68AB6B6D
:1059AC0004467BB91820FEF7A9FE0A4A0A4BA863E5
:1059BC00C0E90023094B83600B2383810122002360
:1059CC00C0E90423AB6B00221C615A6138BD00BFD7
:1059DC00C8E503200E33CDAB34126DE6ECDE0500CA
:1059EC00034611F8012B03F8012B002AF9D170475B
:1059FC00024B0146186800F003B800BFC8E503204D
:105A0C0037B5044608460D4600F00FF8421C114607
:105A1C0020460192FEF79AFE044618B1019A2946D7
:105A2C00FFF7A4FF204603B030BD034613F8012B4B
:105A3C00002AFBD1181A0138704700001D400D00D8
:105A4C0059400D0081400D0085400D000000000004
:105A5C005A65726F20736C6565702074696D652C66
:105A6C002061646A757374696E6720746F203130BD
:105A7C00207365636F6E647320736C65657020743E
:105A8C00696D652E00476F696E6720746F20736CAB
:105A9C0065657020666F72202564206D696E757463
:105AAC006573202564207365636F6E64732E0043E9
:105ABC006F6E6E656374696E6720746F2063656CBE
:105ACC006C756C6172202E2E2E200043656C6C2040
:105ADC004F6E0020202D2043656C6C20436F6E6E42
:105AEC00656374002569004641494C45442E2020CD
:105AFC00436F756C646E277420636F6E6E65637490
:105B0C0020746F2063656C6C756C61722E004F4B4A
:105B1C002E00436F6E6E656374696E6720746F2020
:105B2C00636C6F7564202E2E2E2000436F756C6491
:105B3C006E277420636F6E6E65637420746F2043E0
:105B4C006C6F75642E003D3D3D3D204C4F4F5020F9
:105B5C003D3D3D3D0063656C6C3A20002C2020637C
:105B6C006C6F75643A2000636F6E6E656374546974
:105B7C006D6500000000000000000000D7470D001C
:105B8C00CD470D00C3470D00B9470D00AD470D00C3
:105B9C00A1470D0095470D008D470D0083470D0063
:105BAC0079470D005D580D00776972696E67005377
:105BBC00797374656D20736C65657020636F6E66A8
:105BCC00696775726174696F6E20697320696E768E
:105BDC00616C69642E006170700025592D256D2D46
:105BEC0025645425483A254D3A2553257A0061738E
:105BFC006374696D65000000000000000000000087
:105C0C00F54E0D00FB4E0D00394F0D00094F0D00E8
:105C1C00F74E0D00000000000000000065540D0060
:105C2C0055540D0057540D000000000000000000FA
:105C3C003B550D00A3550D0079550D00354C0D004D
:105C4C006B550D003D550D004D550D009D550D002E
:105C5C005D550D0037550D000000000000000000E0
:105C6C0097560D008D560D0083560D0045560D00B0
:105C7C0077560D00F3400D006B560D0063560D006A
:105C8C0059560D004F560D005D580D0000000000D8
:105C9C0000000000D1560D003D570D0015570D00AA
:105CAC00354C0D00E5560D0001570D00F3560D0057
:105CBC000F570D00D3560D00D7560D0000000000F5
:105CCC0000000000F5570D00FF570D0009580D009E
:105CDC0013580D001D580D0029580D0035580D0096
:105CEC0041580D0049580D0053580D005D580D00DA
:105CFC0000000000F1430D00E1470D0029490D00A3
:105D0C000D4C0D00494D0D00594D0D00B54D0D00BC
:105D1C00A1560D0031590D000000000000000000DC
:045D2C000000000073
:045D3000000000006F
:105D3400FA5B0D00CCE50320000000000000000029
:105D4400000000000000000000000000000000004F
:105D5400000000000000000000000000000000003F
:105D6400000000000000000000000000000000002F
:105D7400000000000000000000000000000000001F
:105D8400000000000000000000000000000000000F
:085D9400000000000000000007
:105D9C00FFFFFFFF00000102030405060708090AC4
:105DAC000B0C0D0E0F101112131415161718191ABF
:085DBC001B1C1D1E1F20280006
:045DC40078563412C7
:04000003D000401CCD
:00000001FF
