:020000040808EA
:100000000000080838130808000006000A0005016F
:080010000402DB070000000000
:040018007410080850
:10001C0009480A4908B5884205D0094A824202D0EB
:10002C00121A00F0DFFF0748074A0021121A00F0ED
:10003C00E7FF064808BD00BF00000020A412080816
:10004C006C0000206C0000204405002044050020BA
:10005C0070B500F0F7FC0025054E064CA41BA40857
:10006C00A54200D170BD56F8043B98470135F7E71F
:10007C0080120808A012080800F07CB808B500F03F
:10008C00B9F8BDE8084000F09FBC00F0C3BA00F01E
:10009C00C9BA0078B0FA80F04009704701230370A8
:1000AC00704710B50446006808B100F0BBFA204652
:1000BC0010BD0EB403B503AB53F8042B012101930F
:1000CC0000F0DCFB02B05DF804EB03B070470023DA
:1000DC0040681A46194600F04DBA00224068114695
:1000EC0000F038BA10B5044604301022002120600C
:1000FC0000F086FF01232375024B2046636000232A
:10010C00237210BD1000030038B50446006928B1F5
:10011C0085680C2100F053FF2846F8E7204638BDCF
:10012C0070B5037D05460E46CBB10368DB6823B181
:10013C009A88042A17D09B68F9E710200B4900F025
:10014C0040FF044668B11022002100F059FF084B13
:10015C0023600423A3802B692C61C4E90236284652
:10016C0070BD2875FBE7DE60F9E700BF7C1208085C
:10017C001000030008B500F063FDBDE808404FF423
:10018C00165100F043BD000010B5041E8AB005DC0A
:10019C0000F056FD1549FFF78CFF0A2400F050FDC6
:1001AC003C23B4FBF3F2124903FB1243FFF781FF2C
:1001BC0004A8FFF797FF9DF8243013B103238DF8A3
:1001CC0018304FF47A7104A86143FFF7A9FF01A816
:1001DC0004A900F075FA019808B100F023FA04A8FC
:1001EC00FFF792FF01200AB010BD00BF881008086D
:1001FC00BD1008082DE9FF474FF47A7000F082FB20
:10020C0000F01EFD4E4900F012FB00F0CDF88046C8
:10021C0000F0E0F94B4B00201C6800F0CDF84FF0DB
:10022C00000A81460025002000F0C6F8B0EB090654
:10023C0061EB0A07AF4208BFA64205D200F0D2F923
:10024C0010B900F0BFF9EEE700F0CCF9002861D04E
:10025C0000F0F6FC044600F0A7F83B49A0EB0802BE
:10026C002046FFF726FF00F0EBFC384C05462046F5
:10027C00FFF733FF064600F0B5F932460346344922
:10028C002846FFF716FF41F2883000F03BFB00F0E8
:10029C00D7FC05462046FFF720FF064600F0A2F9E2
:1002AC00324603462B492846FFF703FF00F09AF924
:1002BC0048B3002500F0C4FC274900F0B8FA01A8A7
:1002CC00CDE901558DF80C5000F0EEFB2A460221C9
:1002DC00606800F037F92046FFF7F9FE00F0B0FC3B
:1002EC0005462046FFF7F9FE044600F07BF922464E
:1002FC00034617492846FFF7DCFE00F055F8174B6C
:10030C00186000F05FF94FF49670FFF73DFF04B0F2
:10031C00BDE8F08700F094FC114900F088FA00F079
:10032C008FFC04460948FFF7D8FE054600F05AF941
:10033C002A46034606492046FFF7BBFEE3E700BF0B
:10034C00E710080800000020F6100808E003002061
:10035C00111108080A1108082C110808380500208A
:10036C0040110808002310B5084C03202360A3801B
:10037C00A371A3F58033A36000F0A6F82046BDE876
:10038C001040034A034900F015BE00BF7000002066
:10039C006C000020AF00080808B5024B1B685B68B6
:1003AC00019308BD9C01040808B5024B1B685B69EE
:1003BC00019308BD9C01040808B5024B1B68DB6D5A
:1003CC00019308BD9C01040808B5024B1B689B698E
:1003DC00019308BDC401040808B5024B1B685B6A95
:1003EC00019308BDC401040808B5024B1B689B6A45
:1003FC00019308BDC401040808B5024B1B68DB6AF5
:10040C00019308BDC401040808B5024B1B681B6BA3
:10041C00019308BDC401040808B5024B1B685B6B53
:10042C00019308BDC401040808B5024B1B681B6C82
:10043C00019308BDC401040808B5024B1B68DB6BB3
:10044C00019308BD2000060808B5024B1B681B6809
:10045C00019308BD1C00060808B5024B1B685B68BD
:10046C00019308BD1C00060808B5024B1B681B69EC
:10047C00019308BD1C00060808B5024B1B685B699C
:10048C00019308BD1C00060808B5024B1B689B694C
:10049C00019308BD1C00060808B5024B1B68DB69FC
:1004AC00019308BD1C00060808B5024B1B681B6AAB
:1004BC00019308BD1C00060808B5024B1B681B6D98
:1004CC00019308BDA001020808B5024B1B685B68CC
:1004DC00019308BDA401040808B5024B1B685B69B5
:1004EC00019308BDA401040808B5034B1B68D3F89D
:1004FC009030019308BD0000A401040808B5034B1B
:10050C001B68D3F89C30019308BD0000A4010408BB
:10051C0008B5034B1B68D3F8B430019308BD000039
:10052C00A401040808B5024B1B685B68019308BD65
:10053C00C801040808B5024B1B689B68019308BDF1
:10054C00C801040808B5024B1B68DB68019308BDA1
:10055C00C801040808B5024B1B681B69019308BD50
:10056C00C801040808B5024B1B685B69019308BD00
:10057C00C801040808B5024B1B689B69019308BDB0
:10058C00C801040808B5024B1B68DB69019308BD60
:10059C00C801040808B5024B1B681B6A019308BD0F
:1005AC00C801040808B5024B1B681B6B019308BDFE
:1005BC00C801040808B5024B1B685B6B019308BDAE
:1005CC00C801040808B5024B1B689B68019308BD61
:1005DC00CC01040808B5024B1B68DB68019308BD0D
:1005EC00CC01040808B5024B1B685B69019308BD7C
:1005FC00CC01040808B5024B1B68DB6B019308BDEA
:10060C00CC01040808B5024B1B685B6C019308BD58
:10061C00CC01040808B5024B1B681B68019308BD8C
:10062C00A001040808B5024B1B685B68019308BD68
:10063C00A001040808B5024B1B685B6A019308BD56
:10064C00A001040808B5024B1B685B6C019308BD44
:10065C00A001040810B50446006818B1FFF7E2FFCA
:10066C000023236010BD38B5B1F904300D468380EA
:10067C000B4653F8062F0446C0F806209B8843818E
:10068C00FFF7E8FF2B6813B1236000232B60204693
:10069C0038BD000038B50C460546FFF7DBFF44B10A
:1006AC002088FFF7B7FF286028B12146228800F088
:1006BC0099FC002038BD0148FCE700BFFCFEFFFFA1
:1006CC00F0B52D4D0B7D04468BB00846AF1D002BAD
:1006DC0038D00B681B79002B34D00022274B02A991
:1006EC00043004930292ADF80C208DF80E20FFF725
:1006FC000FFFDDF80E3000B2C5F80630BDF8123031
:10070C00ADF80C00A88002992846BB80FFF7C2FF09
:10071C0002A8FFF79FFF00232360A380A37123810E
:10072C004FF6FF736381B5F904302046A3803B6814
:10073C002968C4F80630BB886381FFF7ABFF2046FD
:10074C000BB0F0BD00262023CDE902360C4B322035
:10075C0000930C49334602AAFFF7AEFE074B02A9E1
:10076C0004934FF6F263044802968DF80E60ADF8D0
:10077C000C30FFF778FFCBE77C0000200000FFFF78
:10078C0057110808501108080222002010B5084B18
:10079C00084C1A60084B2060A080A071A360FFF782
:1007AC0093FE2046BDE81040044A054900F002BC07
:1007BC00880000207C0000200000FFFF6C0000205F
:1007CC00AF000808F8B506460D4600248F18BD4248
:1007DC000CD0336830469B6815F8011B9847031EF4
:1007EC0001DB1C44F3E7002C08BF1C462046F8BD77
:1007FC0070B505460C46084649B100F02DFC2B6837
:10080C00024621462846BDE87040DB68184770BD9B
:10081C0003689B68184738B50D210546FFF7F8FFAC
:10082C000A2104462846FFF7F3FF204438BD38B5AB
:10083C000546FFF7DDFF04462846FFF7ECFF204492
:10084C0038BD0023012A98BF0A2230B58BB00C4664
:10085C008DF8243009A92546B4FBF2F404FB12539D
:10086C00DBB2092B94BF30333733DBB2AA4201F829
:10087C00013DF0D9FFF7BCFF0BB030BD2DE9F041C5
:10088C0086B000AF05460E46381D142114463B6059
:10089C00FFF7D0FE13280ED82846391DFFF7A8FF06
:1008AC0004461EB12846FFF7B6FF0444204618370D
:1008BC00BD46BDE8F08100F1080323F00703E846CC
:1008CC00ADEB030D2246411C3B686846FFF7B2FEB8
:1008DC0069462846FFF78CFF0446C546E1E7000051
:1008EC00014B024A1A6070478C0000207E110808E8
:1008FC00024B1A68024B1A60704700BF04000020BC
:10090C00900000200021FFF7E7BD10B58368044676
:10091C0013B1032201469847204610BD10B504467A
:10092C00FFF7F3FF204610BD00230348034A044998
:10093C00836000F03FBB00BF940000206C000020DF
:10094C0029090808014B1860704700BF08000020F7
:10095C0008B5174B43B100F073F903681B6998474E
:10096C00002801DDAFF30080124B43B100F080FA98
:10097C0003681B699847002801DDAFF300800E4B1C
:10098C000BB1AFF300800D4B0BB1AFF300800C4BF0
:10099C000BB1AFF300800B4B43B100F08FF9036840
:1009AC001B699847002801DDAFF3008008BD00BF2C
:1009BC00000000000000000000000000000000002B
:1009CC00000000000000000008B5FFF7C1FFFFF7B2
:1009DC00EBFC014B186008BD380500200248034AA7
:1009EC000349121A00F0FEBA0040024004400240D3
:1009FC00A0120808002307B51A466FF07701009380
:100A0C00FFF77CFD03B05DF804FB000007B54388DD
:100A1C000A2B08D0502B0BD1094B1B684BB103B0E0
:100A2C005DF804EB1847FFF7E5FF03B05DF804FB36
:100A3C0000231A466FF077010093FFF75FFDF4E790
:100A4C00A800002038B5124C00211248FFF7FAFD1F
:100A5C00114D2368AB420CBF012200220F4B1A70C0
:100A6C0002D0FFF7BBFF2560FFF796FC044600F0B1
:100A7C00CFFA0B4B13B12046AFF30080002108488E
:100A8C00FFF7B8FDBDE8384000210648FFF72CBD44
:100A9C0000400240510908081E1C279AA40000209F
:100AAC0000000000190A0808082307B5ADF800304B
:100ABC00036800218DF80230037A8DF80330436807
:100ACC0068460193FFF79EFD03B05DF804FB704789
:100ADC0010B50446082100F072FA204610BDF8B596
:100AEC000E46002400F10807051D17F8011D0A2207
:100AFC003046FFF7A6FEAF42044401D12046F8BDB4
:100B0C00002CF2D02E213046FFF782FE0444ECE795
:100B1C00024A026000224260704700BFA811080818
:100B2C00024A02600A684260704700BFA8110808B8
:100B3C00014AC0E900217047A811080810B59DF8BA
:100B4C00084044EA032444EA024444EA0164446051
:100B5C0010BD000037B5044D05609DF81850009588
:100B6C00FFF7ECFF03B030BDA811080841747047C3
:100B7C00704708B50021007CFFF786FC40EAE07066
:100B8C0008BD08B50121007CFFF77EFC40EAE0704F
:100B9C0008BD08B5007CFFF76FFC20EAE07008BDCB
:100BAC0008B5007CFFF760FC20EAE07008BD38B5A2
:100BBC000446007C0D46FFF75FFC002801DC607CDE
:100BCC0028B12946207CFFF767FC20EAE07038BD8D
:100BDC00007CFFF769BC10B50446142100F0EFF956
:100BEC00204610BD10B54FF47A7304460846002118
:100BFC00C4E90113044B2074236001231146637470
:100C0C00FFF722FC204610BDBC1108080022007C16
:100C1C00FFF722BC10B504461422002100F0F0F9B5
:100C2C00054B20466360054BE36040F201132381C2
:100C3C008123238210BD00BFDC000020DD010020D9
:100C4C0030B50F4D87B001A8FFF7E4FF2978BFF34B
:100C5C005B8F11F0010410D12846FFF71AFA60B12E
:100C6C00214601AA0748FFF7BDFF2846FFF716FAF1
:100C7C00054A0649034800F09DF9024807B030BD0B
:100C8C00AC000020B40000206C0000207D0B080894
:100C9C0010B504461422002100F0B2F9054B204691
:100CAC006360054BE36040F20113238181232382AF
:100CBC0010BD00BF5E0200205F03002010B50F4C7A
:100CCC0086B001A8FFF7E4FF2378BFF35B8FDB0747
:100CDC0010D42046FFF7DDF960B1012101AA0848C4
:100CEC00FFF780FF2046FFF7D9F9064A064904486A
:100CFC0000F060F9024806B010BD00BFB000002043
:100D0C00C80000206C0000207D0B0808F0B5002600
:100D1C0085B0044610460F461546039600F09CF924
:100D2C007B6881B20096284603AAFFF785FB30B199
:100D3C0031462046FFF7FCFE204605B0F0BD2046AC
:100D4C0003A9FFF7EDFEF7E7002240681146FFF715
:100D5C0021BC002240681146FFF72CBC00224068E1
:100D6C00FFF720BC0022406881F00101FFF70ABCAC
:100D7C00002340681A461946FFF7F4BB002240686E
:100D8C001146FFF7D7BB002202214068FFF7DABB00
:100D9C00002340681A46FFF7C5BB000010B5282495
:100DAC00074B22461846002100F02AF94FF0FF327B
:100DBC0042600422034B04805A60034A1A6010BD3F
:100DCC00E8030020E0030020EC1108087047417490
:100DDC00704708B5007CFFF727FB20EAE07008BDE0
:100DEC0008B5007CFFF700FB20EAE07008BD08B5F1
:100DFC00007CFFF709FB40EAE07008BD08B5007CF9
:100E0C00FFF7FAFA40EAE07008BD007CFFF704BB7C
:100E1C0070B5467C04460D462EB12946207CBDE8B3
:100E2C007040FFF7D9BA007CFFF7FEFA0028F4DC1B
:100E3C00304670BD10B50446142100F0C0F82046B1
:100E4C0010BD00004FF0000C10B5044608461146CA
:100E5C004FF47A72C4E901C2044A20742260012260
:100E6C0062741A46FFF7B0FA204610BD201208082B
:100E7C0038B50D4D2978BFF35B8F11F0010411D1FA
:100E8C002846FFF706F968B12146084A084B09487D
:100E9C00FFF7D8FF2846FFF701F9074A074905482D
:100EAC0000F088F8034838BD10040020140400201A
:100EBC00980400201C0500206C000020D90D0808A7
:100ECC00002340681A46FFF72DBB00220221406820
:100EDC00FFF738BB002240681146FFF72BBB0022FE
:100EEC0040681146FFF736BB002340681A46194686
:100EFC00FFF738BB002340681A461946FFF73ABB88
:100F0C000022406881F00101FFF73CBB00224068E1
:100F1C00FFF748BB002240681146FFF74BBB00228D
:100F2C0040681146FFF736BB70B51546002686B0F3
:100F3C00044604A8FFF7ECFD2846039600F08CF855
:100F4C000A4B009681B25B68284603AAFFF774FA35
:100F5C0030B131462046FFF7EBFD204606B070BDA0
:100F6C00204603A9FFF7DCFDF7E700BFE0030020F4
:100F7C00024B034A1A6000225A6070473005002069
:100F8C0050120808002313B5074C1A461946204680
:100F9C000093FFF7DFFD2046044A054902B0BDE887
:100FAC00104000F007B800BF3C0500206C0000208A
:100FBC00DB0A08080B460146184600F005B8FFF797
:100FCC0066B8FFF762B8000010B504460448134633
:100FDC0020B10A4602202146AFF3008010BD00BFAD
:100FEC00000000000A44914200F1FF3300D1704729
:100FFC0010B511F8014B914203F8014FF9D110BD16
:10100C0003460244934200D1704703F8011BF9E7F1
:10101C0038B50D4B04461D68AB6B7BB91820FFF738
:10102C00F9FA0A4A0A4BA863C0E90023094B0122CA
:10103C0083600B2383810023C0E904230022AB6B64
:10104C001C615A6138BD00BF080000200E33CDABC7
:10105C0034126DE6ECDE0500034613F8012B002A72
:10106C00FBD1181A013870471D0008085D000808EC
:10107C008500080889000808000000005A65726F96
:10108C0020736C6565702074696D652C2061646AD1
:10109C00757374696E6720746F20313020736563CB
:1010AC006F6E647320736C6565702074696D652E4A
:1010BC0000476F696E6720746F20736C65657020D4
:1010CC00666F72202564206D696E757465732025BA
:1010DC0064207365636F6E64732E003D3D3D3D204F
:1010EC004C4F4F50203D3D3D3D0074696D65207463
:1010FC006F20636F6E6E65637420256C750077616D
:10110C00697420352043656C6C756C6172203D20D0
:10111C0025642E20436C6F7564203D2025642E00C1
:10112C007475726E2065766572797468696E672065
:10113C006F666600646964206E6F7420636F6E6EF8
:10114C0065637400776972696E67005379737465AF
:10115C006D20736C65657020636F6E666967757260
:10116C006174696F6E20697320696E76616C696455
:10117C002E006170700025592D256D2D2564542588
:10118C00483A254D3A2553257A0061736374696D8D
:10119C00650000000000000000000000EB0A0808D9
:1011AC00DB0A0808DD0A0808000000000000000047
:1011BC007D0B0808E30B0808BB0B0808D1070808CF
:1011CC00AD0B08087F0B08088F0B0808DD0B08080F
:1011DC009F0B0808790B08080000000000000000B5
:1011EC009D0D0808930D0808890D0808E7000808EC
:1011FC007D0D0808DB000808710D0808690D08084A
:10120C005F0D0808550D0808190D080800000000AE
:10121C0000000000D90D0808410E08081D0E080832
:10122C00D1070808ED0D0808090E0808FB0D080881
:10123C00170E0808DB0D0808DF0D08080000000079
:10124C0000000000CD0E0808D70E0808E10E0808B3
:10125C00EB0E0808F50E0808010F08080D0F08081A
:10126C00190F0808210F08082B0F0808350F08085C
:10127C00000000007103080895070808ED0808082D
:10128C00FD08080835090808A90D08087D0F08088D
:04129C00910F08089E
:0412A000000000004A
:1012A40060EA0000961108080C000020000000000D
:1012B400000000000000000000000000000000002A
:1012C400000000000000000000000000000000001A
:1012D400000000000000000000000000000000000A
:1012E40000000000000000000000000000000000FA
:1012F40000000000000000000000000000000000EA
:0C130400000000000000000000000000DD
:10131000FFFFFFFF00000102030405060708090A9A
:101320000B0C0D0E0F101112131415161718191A95
:081330001B1C1D1E1F202800DC
:04133800785634129D
:040000050808001CCB
:00000001FF
