:020000040808EA
:10000000000008083C150808000006000A00050169
:080010000402DB070000000000
:040018001C120808A6
:10001C0009480A4908B5884205D0094A824202D0EB
:10002C00121A01F0B3F80748074A0021121A01F01E
:10003C00BBF8064808BD00BF00000020A414080847
:10004C00700000207000002050050020500500209A
:10005C0070B500F0D1FD0025054E064CA41BA4087C
:10006C00A54200D170BD56F8043B98470135F7E71F
:10007C0080140808A014080800F082B808B500F035
:10008C0017FABDE8084000F079BD00F09DBB00F008
:10009C00A3BB0078B0FA80F04009704701230370CD
:1000AC00704710B50446006808B100F095FB204677
:1000BC0010BD0EB403B503AB53F8042B012101930F
:1000CC0000F0B6FC02B05DF804EB03B070470023FF
:1000DC0040681A46194600F027BB002202214068EE
:1000EC0000F00ABB00224068114600F00DBB000076
:1000FC0010B50446043010220021206001F054F8A1
:10010C0001232375024B204663600023237210BD2C
:10011C001000030038B50446006928B185680C212D
:10012C0001F021F82846F8E7204638BD70B5037D6C
:10013C0005460E46CBB10368DB6823B19A88042AC6
:10014C0017D09B68F9E710200B4901F00EF8044614
:10015C0068B11022002101F027F8084B236004231A
:10016C00A3802B692C61C4E90236284670BD287522
:10017C00FBE7DE60F9E700BF7C1408081000030001
:10018C0008B500F037FE4FF4165100F019FEBDE82B
:10019C0008404FF4FA6000F08FBC0000002330B52B
:1001AC00134D85B001A8CDE901338DF80C3000F06A
:1001BC0055FD2846FFF791FF2846FFF788FF00F012
:1001CC0019FE04462846FFF78DFF054600F0E4FAB9
:1001DC002A46034607492046FFF76BFF00F0BEF99D
:1001EC00054B186000F0C8FA012005B030BD00BF07
:1001FC00EC03002030120808440500202DE9FF47CD
:10020C0005460C4600F0C0FA012D40F0888000F045
:10021C00F1FD7E4900F0E5FB00F0ECFD05467C4865
:10022C00FFF760FF064600F0B7FA324603467949FD
:10023C002846FFF73EFF784D00F0AEFAE8B900F023
:10024C008DF92B68001B9842F6D900F0D3FD734949
:10025C0000F0C7FB00F0CEFD05466D48FFF742FFEE
:10026C00064600F099FA324603466A492846FFF7DB
:10027C0020FF6B4A13680133136000F08DFA0028DD
:10028C0045D000F0B7FD674900F0ABFB44F62060A9
:10029C0000F012FC00F0AEFD634900F0A2FB00235D
:1002AC0001A8CDE901338DF80C3000F0D7FC58488B
:1002BC00FFF713FF5648FFF70AFF00F09BFD0546BA
:1002CC005348FFF70FFF064600F066FA3246034626
:1002DC0050492846FFF7EDFE00F040F9534B1860EB
:1002EC0000F04AFA00F086FD054600F037F9504957
:1002FC00021B2846FFF7DDFE00F07CFD484B4D4904
:10030C001A68FFF7D6FE012004B0BDE8F08700F0B4
:10031C0071FD494900F065FBFFF740FFE2E7022D54
:10032C00E0D100F067FD454900F05BFB00F062FD99
:10033C0005463748FFF7D6FE064600F02DFA324642
:10034C00034634492846FFF7B4FE334B00201E68A1
:10035C0000F00CF94FF0000A05460027002000F0D1
:10036C0005F9B0EB050861EB0A09B94508BFB045C2
:10037C0005D200F011FA10B900F0FEF9EEE700F02A
:10038C000BFA48B300F036FD054600F0E7F82C49AF
:10039C00021B2846FFF78DFE00F02CFD05461C487D
:1003AC00FFF7A0FE064600F0F7F93246034619495E
:1003BC002846FFF77EFE00F0EFF9002892D000F0FF
:1003CC0019FD184900F00DFB44F6206000F074FB99
:1003DC0000F010FD14499DE700F00CFD0F4900F0F2
:1003EC0000FB00F007FD05460948FFF77BFE0646BB
:1003FC0000F0D2F93246034606492846FFF759FE6B
:10040C00074A1368013313606CE700BF4B120808EE
:10041C00EC030020301208080000002057120808D6
:10042C008400002067120808751208084405002093
:10043C00C2120808D21208088D1208089F12080868
:10044C00AE12080810B5041E8AB005DC00F0D2FC10
:10045C001549FFF72EFE0A2400F0CCFC3C23B4FB1C
:10046C00F3F2124903FB1243FFF723FE04A8FFF734
:10047C003FFE9DF8243013B103238DF818304FF450
:10048C007A7104A86143FFF751FE01A804A900F09A
:10049C00F1F9019808B100F09FF904A8FFF73AFEB2
:1004AC0001200AB010BD00BFE0120808151308089F
:1004BC0038B54FF4FA6000F0FFFA00F09BFC1049DD
:1004CC0000F08FFA00F096FC04460E48FFF70AFE87
:1004DC00054600F061F92A4603460B492046FFF712
:1004EC00E8FD00F03BF801460120FFF787FE3C20B9
:1004FC00064B1B685843BDE83840FFF7A3BF00BF4D
:10050C003F130808EC0300203012080804000020F8
:10051C0001220A4B10B51A700023094C03202360EA
:10052C00A380A371A3F58033A36000F0A7F8204645
:10053C00BDE81040034A044900F010BE80000020C2
:10054C007400002070000020AF00080808B5024BB2
:10055C001B685B68019308BD9C01040808B5024B3D
:10056C001B685B69019308BD9C01040808B5024B2C
:10057C001B68DB6D019308BD9C01040808B5024B98
:10058C001B689B69019308BDC401040808B5024BA4
:10059C001B685B6A019308BDC401040808B5024BD3
:1005AC001B689B6A019308BDC401040808B5024B83
:1005BC001B68DB6A019308BDC401040808B5024B33
:1005CC001B681B6B019308BDC401040808B5024BE2
:1005DC001B685B6B019308BDC401040808B5024B92
:1005EC001B681B6C019308BDC401040808B5024BC1
:1005FC001B68DB6B019308BD2000060808B5024B95
:10060C001B681B68019308BD1C00060808B5024B4B
:10061C001B685B68019308BD1C00060808B5024BFB
:10062C001B681B69019308BD1C00060808B5024B2A
:10063C001B685B69019308BD1C00060808B5024BDA
:10064C001B689B69019308BD1C00060808B5024B8A
:10065C001B68DB69019308BD1C00060808B5024B3A
:10066C001B681B6A019308BD1C00060808B5024BE9
:10067C001B681B6D019308BDA001020808B5024B55
:10068C001B685B68019308BDA401040808B5024B04
:10069C001B685B69019308BDA401040808B5034BF2
:1006AC001B68D3F89030019308BD0000A401040826
:1006BC0008B5034B1B68D3F89C30019308BD0000B0
:1006CC00A401040808B5034B1B68D3F8B43001939C
:1006DC0008BD0000A401040808B5024B1B685B6848
:1006EC00019308BDC801040808B5024B1B689B6840
:1006FC00019308BDC801040808B5024B1B68DB68F0
:10070C00019308BDC801040808B5024B1B681B699E
:10071C00019308BDC801040808B5024B1B685B694E
:10072C00019308BDC801040808B5024B1B689B69FE
:10073C00019308BDC801040808B5024B1B68DB69AE
:10074C00019308BDC801040808B5024B1B681B6A5D
:10075C00019308BDC801040808B5024B1B681B6B4C
:10076C00019308BDC801040808B5024B1B685B6BFC
:10077C00019308BDC801040808B5024B1B689B68AF
:10078C00019308BDCC01040808B5024B1B68DB685B
:10079C00019308BDCC01040808B5024B1B685B69CA
:1007AC00019308BDCC01040808B5024B1B68DB6B38
:1007BC00019308BDCC01040808B5024B1B685B6CA7
:1007CC00019308BDCC01040808B5024B1B681B68DB
:1007DC00019308BDA001040808B5024B1B685B68B7
:1007EC00019308BDA001040808B5024B1B685B6AA5
:1007FC00019308BDA001040808B5024B1B685B6C93
:10080C00019308BDA001040810B50446006818B196
:10081C00FFF7E2FF0023236010BD38B5B1F90430B7
:10082C000D4683800B4653F8062F0446C0F806206D
:10083C009B884381FFF7E8FF2B6813B123600023EB
:10084C002B60204638BD000038B50C460546FFF736
:10085C00DBFF44B12088FFF7B7FF286028B12146A1
:10086C00228800F093FC002038BD0148FCE700BF53
:10087C00FCFEFFFFF0B52D4D0B7D04468BB00846FA
:10088C00AF1D002B38D00B681B79002B34D0002205
:10089C00274B02A9043004930292ADF80C208DF87A
:1008AC000E20FFF70FFFDDF80E3000B2C5F8063052
:1008BC00BDF81230ADF80C00A88002992846BB8018
:1008CC00FFF7C2FF02A8FFF79FFF00232360A3805E
:1008DC00A37123814FF6FF736381B5F90430204671
:1008EC00A3803B682968C4F80630BB886381FFF796
:1008FC00ABFF20460BB0F0BD00262023CDE902361D
:10090C000C4B322000930C49334602AAFFF7AEFE83
:10091C00074B02A904934FF6F263044802968DF834
:10092C000E60ADF80C30FFF778FFCBE788000020A5
:10093C000000FFFF5713080850130808022200207C
:10094C0010B5084B084C1A60084B2060A080A071B1
:10095C00A360FFF793FE2046BDE81040044A05490A
:10096C0000F0FCBB94000020880000200000FFFF7A
:10097C0070000020AF000808F8B506460D460024AC
:10098C008F18BD420CD0336830469B6815F8011B9C
:10099C009847031E01DB1C44F3E7002C08BF1C46E0
:1009AC002046F8BD70B505460C46084649B100F026
:1009BC0027FC2B68024621462846BDE87040DB68C0
:1009CC00184770BD03689B68184738B50D2105465C
:1009DC00FFF7F8FF0A2104462846FFF7F3FF2044EF
:1009EC0038BD38B50546FFF7DDFF04462846FFF74E
:1009FC00ECFF204438BD0023012A98BF0A2230B5F1
:100A0C008BB00C468DF8243009A92546B4FBF2F4C2
:100A1C0004FB1253DBB2092B94BF30333733DBB2F8
:100A2C00AA4201F8013DF0D9FFF7BCFF0BB030BD75
:100A3C002DE9F04186B000AF05460E46381D142155
:100A4C0014463B60FFF7D0FE13280ED82846391DFC
:100A5C00FFF7A8FF04461EB12846FFF7B6FF044473
:100A6C0020461837BD46BDE8F08100F1080323F09D
:100A7C000703E846ADEB030D2246411C3B68684674
:100A8C00FFF7B2FE69462846FFF78CFF0446C546C1
:100A9C00E1E70000014B024A1A6070479800002001
:100AAC007E130808024B1A68024B1A60704700BF8D
:100ABC00080000209C0000200021FFF7E7BD10B5C6
:100ACC008368044613B1032201469847204610BDA3
:100ADC0010B50446FFF7F3FF204610BD0023034872
:100AEC00034A0449836000F039BB00BFA00000201A
:100AFC0070000020DD0A0808014B1860704700BF29
:100B0C000C00002008B5174B43B100F073F90368D3
:100B1C001B699847002801DDAFF30080124B43B1ED
:100B2C0000F07AFA03681B699847002801DDAFF3DF
:100B3C0000800E4B0BB1AFF300800D4B0BB1AFF33C
:100B4C0000800C4B0BB1AFF300800B4B43B100F0AA
:100B5C008FF903681B699847002801DDAFF300800B
:100B6C0008BD00BF000000000000000000000000F5
:100B7C0000000000000000000000000008B5FFF7B6
:100B8C00C1FFFFF7EBFC014B186008BD44050020CA
:100B9C000248034A0349121A00F0F8BA0040024016
:100BAC0004400240A0140808002307B51A466FF051
:100BBC0077010093FFF77CFD03B05DF804FB0000A8
:100BCC0007B543880A2B08D0502B0BD1094B1B6857
:100BDC004BB103B05DF804EB1847FFF7E5FF03B02A
:100BEC005DF804FB00231A466FF077010093FFF7C2
:100BFC005FFDF4E7B400002038B5124C0021124818
:100C0C00FFF7FAFD114D2368AB420CBF0122002205
:100C1C000F4B1A7002D0FFF7BBFF2560FFF796FC55
:100C2C00044600F0C9FA0B4B13B12046AFF3008019
:100C3C0000210848FFF7B8FDBDE838400021064800
:100C4C00FFF72CBD00400240050B08081E1C279A1C
:100C5C00B000002000000000CD0B0808082307B5E9
:100C6C00ADF80030036800218DF80230037A8DF85E
:100C7C000330436868460193FFF79EFD03B05DF8AF
:100C8C0004FB704710B50446082100F06CFA2046AE
:100C9C0010BDF8B50E46002400F10807051D17F825
:100CAC00011D0A223046FFF7A6FEAF42044401D1D3
:100CBC002046F8BD002CF2D02E213046FFF782FEE4
:100CCC000444ECE7024A026000224260704700BF15
:100CDC00A8130808024A02600A684260704700BF05
:100CEC00A8130808014AC0E900217047A813080896
:100CFC0010B59DF8084044EA032444EA024444EA4F
:100D0C000164446010BD000037B5044D05609DF8CA
:100D1C0018500095FFF7ECFF03B030BDA81308087E
:100D2C0041747047704708B50021007CFFF786FCC2
:100D3C0040EAE07008BD08B50121007CFFF77EFC9D
:100D4C0040EAE07008BD08B5007CFFF76FFC20EAB4
:100D5C00E07008BD08B5007CFFF760FC20EAE0708D
:100D6C0008BD38B50446007C0D46FFF75FFC002833
:100D7C0001DC607C28B12946207CFFF767FC20EA67
:100D8C00E07038BD007CFFF769BC10B50446142137
:100D9C0000F0E9F9204610BD10B54FF47A73044603
:100DAC0008460021C4E90113044B2074236001237D
:100DBC0011466374FFF722FC204610BDBC130808D3
:100DCC000022007CFFF722BC10B50446142200213F
:100DDC0000F0EAF9054B20466360054BE36040F2F6
:100DEC00011323818123238210BD00BFE800002062
:100DFC00E901002030B50F4D87B001A8FFF7E4FFE3
:100E0C002978BFF35B8F11F0010410D12846FFF74E
:100E1C0040F960B1214601AA0748FFF7BDFF2846FB
:100E2C00FFF73CF9054A0649034800F097F90248D8
:100E3C0007B030BDB8000020C000002070000020BA
:100E4C00310D080810B504461422002100F0ACF94D
:100E5C00054B20466360054BE36040F20113238190
:100E6C008123238210BD00BF6A0200206B03002087
:100E7C0010B50F4C86B001A8FFF7E4FF2378BFF341
:100E8C005B8FDB0710D42046FFF703F960B101211B
:100E9C0001AA0848FFF780FF2046FFF7FFF8064A33
:100EAC000649044800F05AF9024806B010BD00BFCC
:100EBC00BC000020D400002070000020310D080878
:100ECC00F0B5002685B0044610460F46154603962D
:100EDC0000F096F97B6881B20096284603AAFFF7CA
:100EEC0085FB30B131462046FFF7FCFE204605B0AD
:100EFC00F0BD204603A9FFF7EDFEF7E7002240689E
:100F0C001146FFF721BC002240681146FFF72CBCAC
:100F1C0000224068FFF720BC0022406881F00101EC
:100F2C00FFF70ABC002340681A461946FFF7F4BBCA
:100F3C00002240681146FFF7D7BB002340681A46D1
:100F4C00FFF7CABB10B52824074B224618460021D0
:100F5C0000F02AF94FF0FF3242600422034B048068
:100F6C005A60034A1A6010BDF4030020EC03002001
:100F7C00EC13080870474174704708B5007CFFF704
:100F8C002DFB20EAE07008BD08B5007CFFF706FBDE
:100F9C0020EAE07008BD08B5007CFFF70FFB40EAC3
:100FAC00E07008BD08B5007CFFF700FB40EAE0707C
:100FBC0008BD007CFFF70ABB70B5467C04460D46A5
:100FCC002EB12946207CBDE87040FFF7DFBA007CCB
:100FDC00FFF704FB0028F4DC304670BD10B5044666
:100FEC00142100F0C0F8204610BD00004FF0000C9A
:100FFC0010B50446084611464FF47A72C4E901C292
:10100C00044A20742260012262741A46FFF7B6FA71
:10101C00204610BD2014080838B50D4D2978BFF3B3
:10102C005B8F11F0010411D12846FFF732F868B13B
:10103C002146084A084B0948FFF7D8FF2846FFF716
:10104C002DF8074A0749054800F088F8034838BDD1
:10105C001C04002020040020A404002028050020EB
:10106C0070000020810F0808002340681A46FFF723
:10107C0033BB002202214068FFF73EBB00224068D0
:10108C001146FFF731BB002240681146FFF73CBB0D
:10109C00002340681A461946FFF73EBB0023406800
:1010AC001A461946FFF740BB0022406881F0010147
:1010BC00FFF742BB00224068FFF74EBB002240689E
:1010CC001146FFF751BB002240681146FFF73CBBAD
:1010DC0070B51546002686B0044604A8FFF7F2FD4D
:1010EC002846039600F08CF80A4B009681B25B6898
:1010FC00284603AAFFF77AFA30B131462046FFF7AB
:10110C00F1FD204606B070BD204603A9FFF7E2FDB5
:10111C00F7E700BFEC030020024B034A1A600022E1
:10112C005A6070473C05002050140808002313B582
:10113C00074C1A46194620460093FFF7E5FD20465A
:10114C00044A054902B0BDE8104000F007B800BFE2
:10115C0048050020700000208F0C08080B46014643
:10116C00184600F005B8FEF792BFFEF78EBF0000E0
:10117C0010B504460448134620B10A460220214605
:10118C00AFF3008010BD00BF000000000A44914284
:10119C0000F1FF3300D1704710B511F8014B9142AB
:1011AC0003F8014FF9D110BD03460244934200D11C
:1011BC00704703F8011BF9E738B50D4B04461D6861
:1011CC00AB6B7BB91820FFF7FFFA0A4A0A4BA863EE
:1011DC00C0E90023094B012283600B238381002388
:1011EC00C0E904230022AB6B1C615A6138BD00BFFF
:1011FC000C0000200E33CDAB34126DE6ECDE050096
:10120C00034613F8012B002AFBD1181A013870473A
:10121C001D0008085D0008088500080889000808FA
:10122C000000000043656C6C756C6172203D2025DC
:10123C00642E20436C6F7564203D2025642E007352
:10124C0074617274207768696C6500646964206EDF
:10125C006F7420636F6E6E656374006368696C6C89
:10126C0020666F7220323073004E4F5720747572A7
:10127C006E2065766572797468696E67206F666634
:10128C0000436F6E6E656374696F6E204661696CA6
:10129C006564007374617274207761697420666F81
:1012AC00720074696D6520746F20636F6E6E656378
:1012BC007420256C7500746F74616C2074696D6595
:1012CC003A20256C75004661696C75726573203D1A
:1012DC00202569005A65726F20736C6565702074E7
:1012EC00696D652C2061646A757374696E6720740E
:1012FC006F203130207365636F6E647320736C657F
:10130C0065702074696D652E00476F696E67207477
:10131C006F20736C65657020666F72202564206D7C
:10132C00696E75746573202564207365636F6E64D4
:10133C00732E000A0A3D3D3D3D204C4F4F50203D41
:10134C003D3D3D00776972696E6700537973746532
:10135C006D20736C65657020636F6E66696775725E
:10136C006174696F6E20697320696E76616C696453
:10137C002E006170700025592D256D2D2564542586
:10138C00483A254D3A2553257A0061736374696D8B
:10139C006500000000000000000000009F0C080821
:1013AC008F0C0808910C08080000000000000000D9
:1013BC00310D0808970D08086F0D080885090808F5
:1013CC00610D0808330D0808430D0808910D080835
:1013DC00530D08082D0D0808000000000000000047
:1013EC00470F0808E70008083D0F0808F100080837
:1013FC00310F0808DB000808250F08081D0F080826
:10140C00130F0808090F0808CD0E0808000000008B
:10141C0000000000810F0808E90F0808C50F080834
:10142C0085090808950F0808B10F0808A30F0808CC
:10143C00BF0F0808830F0808870F0808000000007A
:10144C0000000000751008087F10080889100808B3
:10145C00931008089D100808A9100808B510080872
:10146C00C1100808C9100808D3100808DD100808B6
:10147C00000000001D05080849090808A10A080811
:10148C00B10A0808E90A0808510F080825110808CC
:04149C0039110808F2
:0414A0000000000048
:1014A40060EA00000F0000009613080810000020F6
:1014B4000000000000000000000000000000000028
:1014C4000000000000000000000000000000000018
:1014D4000000000000000000000000000000000008
:1014E40000000000000000000000000000000000F8
:1014F40000000000000000000000000000000000E8
:1015040000000000000000000000000000000000D7
:10151400FFFFFFFF00000102030405060708090A94
:101524000B0C0D0E0F101112131415161718191A8F
:081534001B1C1D1E1F202800D6
:04153C007856341297
:040000050808001CCB
:00000001FF
