:020000040808EA
:1000000000000808602D0808000006000A0005012D
:080010000402DB070000000000
:04001800EC280808C0
:10001C0009480A4908B5884205D0094A824202D0EB
:10002C00121A02F02DFB0748074A0021121A02F09F
:10003C004FFB064808BD00BF00000020C42C080878
:10004C007400002074000020A8050020A8050020E2
:10005C0070B501F045FE0025054E064CA41BA40806
:10006C00A54200D170BD56F8043B98470135F7E71F
:10007C00A02C0808C02C080800F067B808B500F0E0
:10008C0071F8BDE8084001F0EDBD00F09DBB00F03B
:10009C00A3BB000000210C2008B5024A00F0BEFAF8
:1000AC00FEE700BF990408080078B0FA80F0400918
:1000BC0070470123037070477047006A0368DB6860
:1000CC001847000010B50446094B036000F0BCFE55
:1000DC00214601F0EBF801F005FF01F0E9FE2046A6
:1000EC00044B40F8043B00F0CFFF204610BD00BF8E
:1000FC006C2908085429080810B50446FFF7E2FFDC
:10010C002046242102F0A9FA204610BD10B5044661
:10011C00006808B100F060FB204610BD0EB410B5AD
:10012C000023016820208DB00FAA52F8044BCDE9B2
:10013C000403CDE9004203921E2004AA00F07EFACB
:10014C000DB0BDE8104003B0704708B501F0CAFE11
:10015C004FF4165101F0A8FEBDE808404FF4FA60C8
:10016C0001F01EBD2DE9F04F4FF4FA608BB001F099
:10017C0017FD4A494A48FFF7D1FF0022494D114665
:10018C00686800F0C1FA044600F006FB22460346FC
:10019C0045494348FFF7C2FF00F080F9044600F0E0
:1001AC00F3FA424B00201E6800F080F94FF0000B70
:1001BC0082460027002000F079F9B0EB0A0861EBC9
:1001CC000B09B94508BFB04505D200F0E5FA10B9E6
:1001DC0000F0D2FAEEE700F0DFFA354E002853D0EB
:1001EC0000F0DAFA18B144F6206001F0D9FC00F006
:1001FC0055F9021B002433682E492948FFF78EFF5E
:10020C0004A8CDE904448DF8184001F09BFD686802
:10021C002246022100F070FA6868234622462146E5
:10022C0000F082FA05AB049301238DF824300323EC
:10023C00214E10202149CDE90744ADF819408DF825
:10024C001B4005968DF8183002F009FA0546F8B1F6
:10025C001022214602F03CFA0423AB80089B2E604E
:10026C00AB60174B0895EB6001A804A900F00AFBE2
:10027C00019808B100F0B0FA089860B184680C21BC
:10028C0002F0EBF92046F8E7336801333360AEE750
:10029C008DF82400E8E70BB0BDE8F08F00290808C2
:1002AC00C800002044040020112908080000002088
:1002BC00840000202B290808100003009D2B08083F
:1002CC00A0BB0D0070B51426D0E90053044606FB04
:1002DC000356AE4204D0284600F056FB1435F8E71E
:1002EC00206800F079FA204670BD8842F8B50446C3
:1002FC000D46164616D9904215D2A2F11406751A5F
:10030C00A1F114072C44B7421CD02CB13146204625
:10031C0000F0A1FB337C2374304600F035FB143E17
:10032C00143CF0E70ED0B5420CD02CB12946204637
:10033C0000F091FB2B7C2374284600F025FB143530
:10034C001434F0E7F8BD00232DE9F041C0E9003387
:10035C0083604F6804469F420E4624DD4FF014081C
:10036C0008FB07F000F030FA0546E0B1D4E90012C2
:10037C0008FB0212FFF7B9FF206800F02DFA256088
:10038C00A760D6E9007308FB0378B84509D0394655
:10039C00284600F07AFB3B7C143505F8043C1437F6
:1003AC00F3E7736863602046BDE8F081F0B5002484
:1003BC00294B2A4D2A4F8DB0AB602C60AC80AC71B0
:1003CC00022000F053F93A462846264902F040F93B
:1003DC002146012000F05AF9CDE90044029401F0C5
:1003EC0081FD214C05462646694603A8FFF7ABFF65
:1003FC0003A906A8FFF7A7FF1C4B06A946F8043B68
:10040C0009A8FFF7A0FF09AA0121304601F0A0F8C6
:10041C0009A8FFF757FF06A8FFF754FF144B2562F6
:10042C00236003A8FFF74EFF124B236001F05AFD27
:10043C004FF4165101F038FD00F006FD214601F095
:10044C001AF86846FFF73EFF3A4620460A4902F082
:10045C00FFF80DB0F0BD00BF0000FFFF78000020DA
:10046C00740000201901080888000020542908088D
:10047C00442A08086C290808D100080808B5024B62
:10048C001B685B68019308BD9C01040808B5024B0E
:10049C001B68DB68019308BD9C01040808B5024B7E
:1004AC001B685B69019308BD9C01040808B5024BED
:1004BC001B68DB6D019308BD9C01040808B5024B59
:1004CC001B685B6C019308BDD001040808B5024B96
:1004DC001B689B6C019308BDD001040808B5024B46
:1004EC001B68DB6C019308BDD001040808B5024BF6
:1004FC001B685B6D019308BDD001040808B5024B65
:10050C001B689B69019308BDC401040808B5024B24
:10051C001B681B6A019308BDC401040808B5024B93
:10052C001B685B6A019308BDC401040808B5024B43
:10053C001B689B6A019308BDC401040808B5024BF3
:10054C001B68DB6A019308BDC401040808B5024BA3
:10055C001B681B6B019308BDC401040808B5024B52
:10056C001B685B6B019308BDC401040808B5024B02
:10057C001B681B6C019308BDC401040808B5024B31
:10058C001B68DB6C019308BDC401040808B5024B61
:10059C001B68DB6B019308BD2000060808B5024BF5
:1005AC001B681B68019308BD1C00060808B5024BAC
:1005BC001B685B68019308BD1C00060808B5024B5C
:1005CC001B689B68019308BD1C00060808B5024B0C
:1005DC001B681B69019308BD1C00060808B5024B7B
:1005EC001B685B69019308BD1C00060808B5024B2B
:1005FC001B689B69019308BD1C00060808B5024BDB
:10060C001B68DB69019308BD1C00060808B5024B8A
:10061C001B681B6A019308BD1C00060808B5024B39
:10062C001B685B6B019308BDA001020808B5024B67
:10063C001B681B6D019308BDA001020808B5024B95
:10064C001B685B6D019308BDA001020808B5024B45
:10065C001B68DB6E019308BDA001020808B5024BB4
:10066C001B681B6F019308BDA001020808B5024B63
:10067C001B685B68019308BDA401040808B5024B14
:10068C001B685B69019308BDA401040808B5024B03
:10069C001B68DB6A019308BDA401040808B5034B71
:1006AC001B68D3F89030019308BD0000A401040826
:1006BC0008B5034B1B68D3F89C30019308BD0000B0
:1006CC00A401040808B5034B1B68D3F8B43001939C
:1006DC0008BD0000A401040808B5024B1B685B6848
:1006EC00019308BDC801040808B5024B1B689B6840
:1006FC00019308BDC801040808B5024B1B68DB68F0
:10070C00019308BDC801040808B5024B1B681B699E
:10071C00019308BDC801040808B5024B1B685B694E
:10072C00019308BDC801040808B5024B1B689B69FE
:10073C00019308BDC801040808B5024B1B68DB69AE
:10074C00019308BDC801040808B5024B1B681B6A5D
:10075C00019308BDC801040808B5024B1B681B6B4C
:10076C00019308BDC801040808B5024B1B685B6BFC
:10077C00019308BDC801040808B5024B1B689B68AF
:10078C00019308BDCC01040808B5024B1B68DB685B
:10079C00019308BDCC01040808B5024B1B685B69CA
:1007AC00019308BDCC01040808B5024B1B68DB6B38
:1007BC00019308BDCC01040808B5024B1B685B6CA7
:1007CC00019308BDCC01040808B5024B1B681B68DB
:1007DC00019308BDA001040808B5024B1B685B68B7
:1007EC00019308BDA001040808B5024B1B689B6867
:1007FC00019308BDA001040808B5024B1B685B6A95
:10080C00019308BDA001040808B5024B1B685B6C82
:10081C00019308BDA001040810B50446006818B186
:10082C00FFF7DAFF0023236010BD38B5B1F90430AF
:10083C000D4683800B4653F8062F0446C0F806205D
:10084C009B884381FFF7E8FF2B6813B123600023DB
:10085C002B60204638BD000038B50C460546FFF726
:10086C00DBFF44B12088FFF7AFFF286028B1214699
:10087C00228801F005FF002038BD0148FCE700BFCD
:10088C00FCFEFFFFF0B52D4D0B7D04468BB00846EA
:10089C00AF1D002B38D00B681B79002B34D00022F5
:1008AC00274B02A9043004930292ADF80C208DF86A
:1008BC000E20FFF707FFDDF80E3000B2C5F806304A
:1008CC00BDF81230ADF80C00A88002992846BB8008
:1008DC00FFF7C2FF02A8FFF79FFF00232360A3804E
:1008EC00A37123814FF6FF736381B5F90430204661
:1008FC00A3803B682968C4F80630BB886381FFF786
:10090C00ABFF20460BB0F0BD00262023CDE902360C
:10091C000C4B322000930C49334602AAFFF786FE9B
:10092C00074B02A904934FF6F263044802968DF824
:10093C000E60ADF80C30FFF778FFCBE7AC00002071
:10094C000000FFFF832908087C29080802220020E8
:10095C0010B5084B084C1A60084B2060A080A071A1
:10096C00A360FFF783FE2046BDE81040044A05490A
:10097C0001F06EBEB8000020AC0000200000FFFFAC
:10098C00740000201901080810B504460068FFF730
:10099C0023FF204610BD10B50446006808B1FFF7D0
:1009AC001BFF0023C4E90133236010BD38B5044696
:1009BC000D4600680131FFF717FF10B1C4E90005BF
:1009CC00012038BD10B50368044623B143688B423F
:1009DC0001D3012010BD2046FFF7E8FF0028F9D015
:1009EC00A368002BF5D122681370F2E770B50E46A0
:1009FC00114604461546FFF7E5FF20B92046FFF7E0
:100A0C00CAFF204670BD2A4631462068A56001F019
:100A1C0037FE00212268A368D154F2E738B50546A9
:100A2C0000680C4668B16A688B689A4207D30968FB
:100A3C0001F09BFEA368AB600023A36038BDFFF7F9
:100A4C00CBFE23682B6063686B60A368AB600023EC
:100A5C00C4E90033F1E7002310B50446C0E90033C4
:100A6C0083600373FFF7DAFF204610BD884210B590
:100A7C000B46044604D0096821B19A68FFF7B6FF0B
:100A8C00204610BDFFF787FFFAE7002310B5044698
:100A9C00C0E9003383600373FFF7E8FF204610BD05
:100AAC00F8B506460D4600248F18BD420CD03368AD
:100ABC0030469B6815F8011B9847031E01DB1C444C
:100ACC00F3E7002C08BF1C462046F8BD70B5054660
:100ADC000C46084649B101F050FE2B6802462146EF
:100AEC002846BDE87040DB68184770BD03689B68FA
:100AFC00184738B50D210546FFF7F8FF0A210446C3
:100B0C002846FFF7F3FF204438BD0023012A98BF85
:100B1C000A2230B58BB00C468DF8243009A9254635
:100B2C00B4FBF2F404FB1253DBB2092B94BF303349
:100B3C003733DBB2AA4201F8013DF0D9FFF7C6FF0B
:100B4C000BB030BD2DE9F04186B000AF05460E4626
:100B5C00381D142114463B60FFF74EFE13280ED8A7
:100B6C002846391DFFF7B2FF04461EB12846FFF791
:100B7C00C0FF044420461837BD46BDE8F08100F1A3
:100B8C00080323F00703E846ADEB030D2246411C96
:100B9C003B686846FFF730FE69462846FFF796FF2C
:100BAC000446C546E1E780680368DB681847704770
:100BBC00084611B10B685B6818477047704770475F
:100BCC00704738B504460D4600682E2101F0B9FD7A
:100BDC0023680246C01A286020B1137803B1013291
:100BEC002068226038BD10B504460C2101F035FD9B
:100BFC00204610BD10B50446042101F02EFD204600
:100C0C0010BD10B50446042101F027FD204610BD8F
:100C1C0008B501F0A0FDB0FA80F0400908BD10B590
:100C2C000C4601F05FF9844205D101F05BF9BDE897
:100C3C00104001F03DB901F093F9844202D101F06A
:100C4C008FF9F4E701F07AFA844205D101F076FAD3
:100C5C00BDE8104001F06FBA2CB123682046BDE806
:100C6C0010405B68184710BD38B5054608460C4661
:100C7C0001F083FD214602462846BDE8384001F0CC
:100C8C00C0BC70B5044608460D4601F076FD2368DD
:100C9C00024629462046BDE87040DB68184707B578
:100CAC0003688DF807100122DB680DF107019847E6
:100CBC0003B05DF804FB0EB403B503AB53F8042B7F
:100CCC000021006A0193FFF73DFF02B05DF804EBD1
:100CDC0003B070472DE9F74F4FF01408D0E9009599
:100CEC0017464C4608FB05F50093AB10174D5D43BA
:100CFC00002D23DD6E1008FB06F004EB000ABAF899
:100D0C0004B03A465F4528BF5A462058019101F07D
:100D1C003CFD0123019978B95F4503D1009A13700A
:100D2C003546E5E78CBF012000200028F8D0AE1B2B
:100D3C000AF11404013EF3E7C00FF6E7A4EB090433
:100D4C000248A410604303B0BDE8F08FCDCCCCCCEE
:100D5C007FB50369067E019103B3F9B1002500F15B
:100D6C000C04039503A901A8FFF72BFF0146A8B1BA
:100D7C000DF10B032046039A8DF80B50FFF7AAFFD9
:100D8C009DF80B3053B11423246803FB0044B4F9D1
:100D9C0006300834002BA8BFDEB2E3E7304604B0BF
:100DAC0070BD000010B50A4C2378BFF35B8FDB07D6
:100DBC000BD42046FFF778F938B12046FFF779F9C4
:100DCC00044A0549054801F043FC044810BD00BF26
:100DDC00C000002074000020CB0B08080400002089
:100DEC0010B50A4C2378BFF35B8FDB070BD420467E
:100DFC00FFF75AF938B12046FFF75BF9044A054969
:100E0C00054801F025FC044810BD00BFC4000020BB
:100E1C0074000020C90B08080800002038B5002514
:100E2C000446C0E90055C0E904558560856140F869
:100E3C00245FFFF743FBFFF7B5FFE061FFF7D0FF3F
:100E4C0025732062204638BD10B50B4C2378BFF3B8
:100E5C005B8FDB070ED42046FFF726F950B107480D
:100E6C00FFF7DCFF2046FFF724F9054A0549034844
:100E7C0001F0EEFB014810BDBC000020CC000020AE
:100E8C0074000020431308080023024A0249034857
:100E9C00FFF7E4BB21120808AD1108082D11080852
:100EAC0000231A4619461846FFF7D8BB38B5046814
:100EBC0005467CB16368013B63605BB923682046DF
:100ECC009B689847A368013BA3601BB92368204625
:100EDC00DB689847284638BD0B68036013B15A6825
:100EEC0001325A60704737B504460D6951F8043B1E
:100EFC0001A80093FFF7F0FF6A462946204601F04F
:100F0C002BFA01A8FFF7D2FF204603B030BD37B54E
:100F1C0004468D6851F8043B01A80093FFF7DCFFF1
:100F2C006A462946204601F093FA01A8FFF7BEFF56
:100F3C00204603B030BD37B50446CD6851F8043BAC
:100F4C0001A80093FFF7C8FF6A462946204601F026
:100F5C005BFA01A8FFF7AAFF204603B030BD0000E2
:100F6C0070B58AB00D46014604A8FFF7D0FF144EA9
:100F7C0004A801F085FAE8B1684604A9FFF7DBFF85
:100F8C0031460298FFF744FE044610B12C1E18BFE0
:100F9C00012401A8FFF78AFF002CE9D0684604A9B8
:100FAC00FFF7A1FF684601F00EFA286001A8FFF7D1
:100FBC007DFFDDE705A8FFF779FF0AB070BD00BF24
:100FCC00AA29080837B50C4619492046154601F0E0
:100FDC00C2FB48B900F086FF4FF4165100F064FFD5
:100FEC0000F080FF03B030BD2046124901F0B3FB86
:100FFC0040B900F0B5FF4FF4165100F055FF00F06A
:10100C00AFFFEFE720460C4901F0A5FB70B94FF498
:10101C00165301A928460193FFF7A2FF01F08EF8A1
:10102C00019901F085F801F089F8DBE70020D9E798
:10103C00AF290808B6290808B929080870B514267C
:10104C00D0E90053044606FB0356AE4205D005F129
:10105C000800FFF7F3FF1435F7E72068FFF7BCFB38
:10106C00204670BD70B50446D0E9005305EB03165D
:10107C00AE4204D02846FFF787FC1035F8E720680D
:10108C00FFF7AAFB204670BD10B504460C30FFF7E5
:10109C00D5FF2046FFF7E6FF204610BD10B50446ED
:1010AC00034B40F8043BFFF7EFFF204610BD00BF99
:1010BC005429080810B50446FFF7F0FF20462421F8
:1010CC0001F0CBFA204610BD10B50446024B03606C
:1010DC00FFF7E4FF204610BD5C2A080810B5044653
:1010EC00FFF7F2FF2046242101F0B7FA204610BD8D
:1010FC000022C0E90022826010B50C680A6004600E
:10110C004C684A6044608C688A60846010BD10B57D
:10111C00044603681868FFF7E9F9204610BD000083
:10112C002DE9F04F87B003931C4B80465B688946D2
:10113C00C3F3080316466BB9FFF786FE044600F1AD
:10114C002403406A0593FFF7C9F9237B2BB105A84B
:10115C00FFF7DDFF07B0BDE8F08F01235FFA89F9D7
:10116C002373D4E9005305EB830AAA4512D055F832
:10117C00047B3146381DFFF7EBFD8145F5D3039A0F
:10118C003B680092D3F808B04A463346414638468D
:10119C00D847EAE700232373D9E700BF00ED00E04E
:1011AC002DE9F74F9B461A4B80465B688946C3F383
:1011BC00080316466BB9FFF747FE044600F12403FB
:1011CC00406A0193FFF78AF9237B2BB101A8FFF743
:1011DC009EFF03B0BDE8F08F0123F6B22373D4E970
:1011EC00005305EB830A55450ED055F8047B594640
:1011FC00381DFFF7ADFD8642F5D33B684A464146A4
:10120C003846DB689847EEE700232373DEE700BF20
:10121C0000ED00E02DE9F341164B05465B680F46E7
:10122C00C3F308031BBBFFF70FFE044600F12403B6
:10123C00406A0193FFF752F9D4E90063462406EBA8
:10124C008308B04509D101A8FFF761FFA542B4BFDF
:10125C000020012002B0BDE8F08156F8040B39469D
:10126C000430FFF775FD8442A8BF0446E9E700206F
:10127C00F0E700BF00ED00E00B4670B5044605C872
:10128C0000EB8202824207D001461D6851F8046BC4
:10129C00AE4203D00846F5E7002070BD521A01F0AB
:1012AC00FDF963680120013B6360F6E71FB5044656
:1012BC0000F12403406A01910393FFF70FF92046D4
:1012CC0001A9FFF7D9FF18B163680BB9FFF7E8FD67
:1012DC0003A8FFF71CFF04B010BD182370B504461B
:1012EC00D0E9045603FB0656AE4215D0204605F154
:1012FC001001FFF7C1FF63680BB9FFF7D1FDE0697F
:10130C0029690368DB689847696919B1206A036821
:10131C00DB6898471835E7E71826D4E9045306FB31
:10132C000356AE4204D02846FFF72EFB1835F8E7DB
:10133C000023636170BD73B50446FFF7B1FD04F182
:10134C002403606A0193FFF7C9F82046FFF7C5FF35
:10135C0001A8FFF7DCFE606A08B1FFF7B7F8D4E923
:10136C000453182606FB0356AE4204D02846FFF75A
:10137C000BFB1835F8E72069FFF72EFA2068FFF70A
:10138C002BFA204602B070BD8842F8B506460C46D2
:10139C00154627D9904226D20026A2F114056C1AC4
:1013AC00A1F114070444AF423DD0A4B12B682360D3
:1013BC00AB88A380B5F90630C4E902662661E380E8
:1013CC00AB68A360AE60E368EA68E260EB60236937
:1013DC002A6922612B6105F10800FFF72FFE143DED
:1013EC00143CE0E71FD00027AC421CD0A6B1236808
:1013FC003360A388B380B4F90630C6E9027737614D
:10140C00F380A368B360A760F368E268F260E360FE
:10141C00336922693261236104F10800FFF70EFE83
:10142C0014341436E0E7F8BDF8B5D0E901539D4209
:10143C0004460E4617460DDB0135002D006804DD11
:10144C00A900FFF7D1F918B9F8BDFFF7C5F90020CD
:10145C002060A5602568626805EB86019200A2EB0E
:10146C008602081D01F01AF945F826706368012000
:10147C0001336360E8E737B5044600F12403406AA2
:10148C000D460193FFF72AF8D4E9003103EB8100F4
:10149C0083421A460AD012680433AA42F8D101A832
:1014AC00FFF735FE0025284603B030BD2A462046FE
:1014BC00FFF7BAFF05460028F1D06368012B01D174
:1014CC00FFF7E2FC01A8FFF722FEECE78842F8B533
:1014DC0004460D46164614D9904213D2A2F11006BA
:1014EC00751AA1F110072C44B74218D01CB1314623
:1014FC002046FFF7B0FA3046FFF746FA103E103C94
:10150C00F2E70CD0B5420AD01CB129462046FFF7B1
:10151C00A2FA2846FFF738FA10351034F2E7F8BD76
:10152C0070B50E1E054611DD3001FFF74DF904466E
:10153C0058B1D5E9001201EB0212FFF7C7FF28687A
:10154C00FFF74AF901202C60AE6070BD0024F6E76D
:10155C002DE9F04F91460023462297B00391D9F81C
:10156C00041004469942C0E90033C0E90233C0E9D3
:10157C000433CDE90A3302760C9323DCD9E9005706
:10158C00142303FB0757AF423BD029460DA8FFF7A6
:10159C0062FA0DA911A80B9EFFF75DFADDE90B139A
:1015AC0099421BDA0A9B0B9A03EB0616314603EBA6
:1015BC00021206F11000FFF789FFEEB90B9B013305
:1015CC000B9311E00AA8FFF7ABFF0028D6D10AA8AD
:1015DC00FFF748FD204617B0BDE8F08F01310AA88F
:1015EC00FFF79EFF0028DDD111A8FFF7CDF90DA85C
:1015FC00FFF7CAF91435C6E7304611A9FFF72BFAE5
:10160C00DCE700264FF0140A3746CDE90D660F963D
:10161C00DDE90A239E4280F297803301D358089368
:10162C000BB90136F4E70AFB06F3099702930DADEB
:10163C0009A908A8FFF7C5FA83460028F1D001468E
:10164C00099A28460DF11F038DF81F70FFF742FB16
:10165C009DF81F800190B8F1000F66D1BDF82430C1
:10166C00CDE91388ADF848304FF6FF73CDF844B090
:10167C00ADF84A30CDF85480D5E9013293421ADBEB
:10168C0003F1010BBBF1000F4ADD0AFB0BF0FFF776
:10169C009BF80490002845D0D5E900120AFB0212F1
:1016AC00FFF772FE049B28680493FFF795F8049BE0
:1016BC00C5F808B02B60019BD5F800B00AFB03F30A
:1016CC006A680BEB030101F114000AFB02B20491EE
:1016DC000593FFF759FE0499A9B1119A059B4BF894
:1016EC000320BDF848308B80BDF94A30C1E9027740
:1016FC000F61CB80139B8B60149B1397CB60159B56
:10170C0014970B6115976B6801336B6013A8FFF787
:10171C0095FCB8F1000F08D00DA8FFF78FFC56E729
:10172C004346C0E74FF00108F0E7019B2D680AFB28
:10173C000355089B1B782BB9D9F80030029A134437
:10174C001B7CEB80083573E721682260626863605C
:10175C00A3680B920C9A0C93E368A2600D9A0D93FC
:10176C002369E2600E9A0E93636922610F9A0F93BC
:10177C00039B0A9162612376CEE700007FB5054694
:10178C000E460446084B114645F8043B01A8FEF7EB
:10179C00DAFD314601AA2846FFF7DAFE01A8FEF76A
:1017AC0091FD204604B070BD54290808F0B50F46D1
:1017BC0087B03846254916461D460C9C00F0CBFFD9
:1017CC0000BBE4B129466846FFF792FC242020496F
:1017DC0000F045FF054670B1694603A8FEF7B3FD5E
:1017EC00314603AA2846FFF7C9FF03A8FEF76AFD96
:1017FC00184B2C622B606846FEF764FD2C46204685
:10180C0007B0F0BD3846144900F0A5FFE0B9002C34
:10181C00F5D029466846FFF76BFC24200C4900F0F4
:10182C001EFF05460028E6D0694603A8FEF78BFD8F
:10183C00314603AA2846FFF7A1FF03A8FEF742FD95
:10184C00064B2C622B60D6E70024D8E7C129080888
:10185C009D2B08085C2A0808C5290808442A080892
:10186C00014B024A1A607047C8000020D6290808AC
:10187C002DE9F047089DD0F8209004460E461746F7
:10188C00984600F02FFB81454DD02B79190704D5D4
:10189C0020466A695449FFF70EFAB8F1000F0DD0D3
:1018AC005B212046FFF7FBF941462046FFF7E9F99B
:1018BC00236802222046DB684C4998472B79DA07CB
:1018CC0024D5D5F808802F21404600F070FF08B1D0
:1018DC0000F1010841462046FFF7D3F92B799B070D
:1018EC0008D53A212046FFF7DAF92046EA68404944
:1018FC00FFF7E1F92A79236812F0040F20464FF024
:10190C000202DB6814BF3B493B4998472B795807C7
:10191C001DD529690B461A4613F8010B60B1202816
:10192C0008D11946F7E7354800F05FFC0028ACD029
:10193C00BDE8F0872828EED12368521A2046DB68D0
:10194C009847236804222046DB682D4998470021DC
:10195C003846FEF77BFE01462046FFF792F92368D6
:10196C0002222046DB68244998471EB131462046A6
:10197C00FFF787F92B7913F0300F2CD0236821490E
:10198C00DB680222204698472B79D9060AD52368B2
:10199C00072220461C49DB6898472046AA691B4948
:1019AC00FFF789F92B799A0611D5DB0605D5236843
:1019BC0002222046DB680F499847236820461449C9
:1019CC000A22DB6898472046E969FFF75AF95D213E
:1019DC002046FFF764F923682046BDE8F047022251
:1019EC00DB680C49184700BFDA290808E129080808
:1019FC0046290808E4290808E92908089405002064
:101A0C00E7290808EC290808EF290808F72908082D
:101A1C00FA290808052A08082DE9F04385B0D0F802
:101A2C00209005460F4690461E460C9C00F05AFA34
:101A3C00814505D1494800F0D8FB002840F08A8048
:101A4C004FF000092B6A464A01A8019203938DF8C6
:101A5C00089000F03EFD49464046FEF7F7FD8046F3
:101A6C004049012201A800F0BDFD4146FFF7FCF8FA
:101A7C003FB13D49012201A800F0B4FD3946FFF702
:101A8C00F3F83EB13949012201A800F0ABFD314613
:101A9C00FFF7EAF82379DF070ED5A6682F21304629
:101AAC0000F085FE00B1461C3149012201A800F06E
:101ABC0099FD3146FFF7D8F823799E0707D52D49B4
:101ACC00022201A800F08EFDE16800F00FFD2379E1
:101ADC00580714D5266933461F4613F8012B2AB133
:101AEC00202A01D11E46F7E7282AF5D102222249E5
:101AFC0001A800F077FD3146BA1B00F082FD237976
:101B0C00190707D51D49012201A800F06BFD616979
:101B1C0000F0FEFC2379DA0608D5042218490DEBF7
:101B2C00020000F05FFDA16900F0E0FC23799B0648
:101B3C0007D51449062201A800F054FDE169FFF70E
:101B4C0093F801A800F0AFFC286A022203680E4942
:101B5C00DB68984705B0BDE8F08300BF9405002012
:101B6C002C2A0808B4290808082A08080A2A080890
:101B7C000C2A08080E2A0808112A0808142A080832
:101B8C00162A08081B2A0808052A0808024B1A6896
:101B9C00024B1A60704700BF0C000020F4000020BC
:101BAC000021FEF76BBD10B58368044613B1032208
:101BBC0001469847204610BD10B50446FFF7F3FFC9
:101BCC00204610BD00230348034A0449836000F0FB
:101BDC003FBD00BFF800002074000020C51B0808A2
:101BEC00014B1860704700BF1000002008B5174B60
:101BFC0043B100F077F903681B699847002801DDB1
:101C0C00AFF30080124B43B100F098FA03681B69E4
:101C1C009847002801DDAFF300800E4B0BB1AFF3FA
:101C2C0000800D4B0BB1AFF300800C4B0BB1AFF33D
:101C3C0000800B4B43B100F093F903681B69984784
:101C4C00002801DDAFF3008008BD00BF00000000DC
:101C5C000000000000000000000000000000000078
:101C6C000000000008B5FFF7C1FFFEF717FC014BA1
:101C7C00186008BD9C0500200248034A0349121A4B
:101C8C0000F0FEBC0040024004400240C02C08089A
:101C9C00002307B51A466FF077010093FEF708FD95
:101CAC0003B05DF804FB000007B543880A2B08D08D
:101CBC00502B0BD1094B1B684BB103B05DF804EBF7
:101CCC001847FFF7E5FF03B05DF804FB00231A4645
:101CDC006FF077010093FEF7EBFCF4E70C010020AA
:101CEC0038B5124C00211248FEF78EFD114D2368B9
:101CFC00AB420CBF012200220F4B1A7002D0FFF72F
:101D0C00BBFF2560FEF7BAFB044600F0E9FC0B4B69
:101D1C0013B12046AFF3008000210848FEF744FDC4
:101D2C00BDE8384000210648FEF7B8BC0040024030
:101D3C00ED1B08081E1C279A08010020000000005B
:101D4C00B51C0808082307B5ADF80030036800215E
:101D5C008DF80230037A8DF803304368684601939E
:101D6C00FEF72AFD03B05DF804FB704710B504467E
:101D7C00082100F072FC204610BDF8B50E46002478
:101D8C0000F10807051D17F8011D0A223046FEF761
:101D9C00BCFEAF42044401D12046F8BD002CF2D069
:101DAC002E213046FEF7A2FE0444ECE7024A026004
:101DBC0000224260704700BFC02A0808024A026035
:101DCC000A684260704700BFC02A0808014AC0E98F
:101DDC0000217047C02A080810B59DF8084044EA55
:101DEC00032444EA024444EA0164446010BD000048
:101DFC0037B5044D05609DF818500095FFF7ECFFC2
:101E0C0003B030BDC02A080841747047704708B54C
:101E1C000021007CFEF7EAFB40EAE07008BD08B543
:101E2C000121007CFEF7E2FB40EAE07008BD08B53A
:101E3C00007CFEF7D3FB20EAE07008BD08B5007CFF
:101E4C00FEF7C4FB20EAE07008BD38B50446007C00
:101E5C000D46FEF7C3FB002801DC607C28B1294647
:101E6C00207CFEF7CBFB20EAE07038BD007CFEF74F
:101E7C00CDBB10B50446142100F0EFFB204610BD7D
:101E8C0010B54FF47A73044608460021C4E90113D7
:101E9C00044B20742360012311466374FEF77EFB10
:101EAC00204610BDD42A08080022007CFEF77EBB19
:101EBC00007CFEF783BB000010B504461422002101
:101ECC0000F006FC054B20466360054BE36040F2D6
:101EDC00011323818123238210BD00BF4001002008
:101EEC004102002030B50F4D87B001A8FFF7E4FF89
:101EFC002978BFF35B8F11F0010410D12846FEF74F
:101F0C00D3F860B1214601AA0748FFF7B9FF28466C
:101F1C00FEF7CFF8054A0649034800F099FB024842
:101F2C0007B030BD10010020180100207400002003
:101F3C00191E080810B504461422002100F0C8FB35
:101F4C00054B20466360054BE36040F2011323818F
:101F5C008123238210BD00BFC2020020C3030020D6
:101F6C0010B50F4C86B001A8FFF7E4FF2378BFF340
:101F7C005B8FDB0710D42046FEF796F860B1012189
:101F8C0001AA0848FFF77CFF2046FEF792F8064AA4
:101F9C000649044800F05CFB024806B010BD00BFC7
:101FAC00140100202C01002074000020191E0808C8
:101FBC00002240681146FEF7A7BBF0B5002685B09D
:101FCC00044610460F461546039600F0D6FB7B6878
:101FDC0081B20096284603AAFEF7D8FA30B13146F2
:101FEC002046FFF7F3FE204605B0F0BD204603A9BE
:101FFC00FFF7E4FEF7E7002240681146FEF7A4BBAA
:10200C00002240681146FEF7AFBB00224068FEF785
:10201C00A3BB0022406881F00101FEF78DBB0023B9
:10202C0040681A461946FEF77FBB002340681A46E3
:10203C001946FEF771BB002240681146FEF754BBEF
:10204C00002202214068FEF757BB002340681A4665
:10205C00FEF742BB10B52824074B22461846002138
:10206C0000F036FB4FF0FF3242600422034B048039
:10207C005A60034A1A6010BD4C040020440400202E
:10208C00042B080870474174704708B5007CFEF7B4
:10209C006DFA20EAE07008BD08B5007CFEF746FA40
:1020AC0020EAE07008BD08B5007CFEF74FFA40EA64
:1020BC00E07008BD08B5007CFEF740FA40EAE0701D
:1020CC0008BD007CFEF74ABA70B5467C04460D4646
:1020DC002EB12946207CBDE87040FEF71FBA007C6B
:1020EC00FEF744FA0028F4DC304670BD10B5044607
:1020FC00142100F0B2FA204610BD00004FF0000C85
:10210C0010B50446084611464FF47A72C4E901C270
:10211C00044A20742260012262741A46FEF7EEF91A
:10212C00204610BD382B08080023007CFEF726BA89
:10213C000022FFF7F9BF007CFEF7E8B938B50D4D6A
:10214C002978BFF35B8F11F0010411D12846FDF7FC
:10215C00ABFF68B12146084A084B0948FFF7CEFF90
:10216C002846FDF7A6FF074A0749054800F070FA14
:10217C00034838BD7404002078040020FC040020BF
:10218C00800500207400002091200808002340687E
:10219C001A46FEF7A1BA002202214068FEF7ACBA3B
:1021AC00002240681146FEF79FBA00224068114693
:1021BC00FEF7AABA002340681A461946FEF7ACBAD5
:1021CC00002340681A461946FEF7AEBA0022406852
:1021DC0081F00101FEF7B0BA00224068FEF7BCBAEC
:1021EC00002240681146FEF7BFBA00224068114633
:1021FC00FEF7AABA70B51546002686B0044604A8A8
:10220C00FFF7D4FD2846039600F0B7FA0A4B009668
:10221C0081B25B68284603AAFEF7B8F930B13146A3
:10222C002046FFF7D3FD204606B070BD204603A91B
:10223C00FFF7C4FDF7E700BF44040020024B034A3C
:10224C001A6000225A60704794050020682B080819
:10225C00012200F1100313F8101C1846012908D1B3
:10226C0053F8041C02EB4102013A03F11003F2D1C2
:10227C007047022904BF53F8041C5218F4E70EB43B
:10228C002DE9F04187B000AF07F1340555F8048B08
:10229C0004462B464246102107F108007D60FEF7EC
:1022AC00ABFA0F281BD900F1080323F007036E4685
:1022BC00ADEB030D4246411C2B4668467D60FEF794
:1022CC009BFA021E04DD2368694620469B689847EA
:1022DC00B5461C37BD46BDE8F04103B07047002839
:1022EC00F7D0236802469B68204607F108019847FF
:1022FC00EFE710B5044603689B689847A368013B59
:10230C00A3602BB923682046BDE81040DB68184752
:10231C0010BD07B503688DF8071001229B680DF1FD
:10232C000701984703B05DF804FB38B50B68044609
:10233C0003604D6843689D420CD015B16B68013346
:10234C006B60606828B14368013B43600BB9FFF7D1
:10235C00D0FF6560204638BD0B461146002210B5F3
:10236C000446C0E9002283600BB9204610BDFFF77C
:10237C00DCFFFAE70346806820B30278032A1AD8F8
:10238C00DFE802F00417021B052070471B685A682F
:10239C004368D05C2D2812D0A0F13003092B0ED944
:1023AC0074280ED066280CD0A0F16E035842584108
:1023BC0070470620704700207047042070470320A8
:1023CC0070470220704710B50446FFF7D3FF022870
:1023DC000ED0C31EDBB2012B14D82268A368506840
:1023EC005B680A22BDE810400021184400F06EBA68
:1023FC002268A36852685B68D05CA0F174035842F1
:10240C00584110BD0020FCE70B461146002210B5C8
:10241C000446C0E900220D48C4E90202A3B11A78AF
:10242C00032A06D082B90A6850685A68825C6E2A00
:10243C0007D00A68586852689B6802441B1AA2604D
:10244C00E3602046FFF771FF204610BD072A0808FD
:10245C0038B500250B4604461146C0E90055C0E9C5
:10246C000255C0E904554BB11A78012A06D103F183
:10247C001002DB6882604361FFF757FF204638BDCE
:10248C0010B54369044663B18068013BE0601030CD
:10249C00A0602061636113B1FFF7DAFEA060012038
:1024AC0000E0184610BD10B57D210446FFF731FF42
:1024BC0001232046237110BD08B50379012B02D0EE
:1024CC00022B04D008BD2C21FFF723FFFAE73A2199
:1024DC00FAE710B50446FFF7EFFF20467B21FFF724
:1024EC0018FF00232046237110BD000038B50446A8
:1024FC000D46FFF7E1FF236820462A46DB680349B7
:10250C00984701232046237138BD00BF462908088F
:10251C0038B504460D46FFF7CFFF236820462A4600
:10252C00DB680349984701232046237138BD00BF5F
:10253C00942B08082DE9F0410D461746222104463C
:10254C00FFF7E7FE2946DFF898802F44BD422A4664
:10255C0038D015F8016B222E03D05C2E01D01F2E23
:10256C00F4D82368521A20469B6898475C21204671
:10257C00FFF7CFFE0D2E0AD8072E1CD9A6F10803A3
:10258C00052B18D8DFE803F00D0F11171315222EA9
:10259C0001D05C2E0FD131462046FFF7BAFE2946FA
:1025AC00D4E76221F8E77421F6E76E21F4E766219F
:1025BC00F2E77221F0E72368324641462046DB6899
:1025CC009847ECE78D4204D0236820469B686A1A32
:1025DC00984722212046FFF79CFEBDE8F08100BF02
:1025EC00972B080870B504460D461646FFF764FF96
:1025FC00204632462946FFF79DFF022320462371D1
:10260C0070BD70B504460D461646FFF755FF2046C3
:10261C0032462946FFF78EFF01232046237170BDF9
:10262C00002313B5074C1A46194620460093FFF7B2
:10263C00DFFB2046044A054902B0BDE8104000F01B
:10264C0007B800BFA005002074000020771D080803
:10265C000B460146184600F005B8FDF718BDFDF70E
:10266C0014BD000010B504460448134620B10A46B8
:10267C0002202146AFF3008010BD00BF0000000017
:10268C000A44914200F1FF3300D1704710B511F8A4
:10269C00014B914203F8014FF9D110BD884210B59E
:1026AC0001EB020402D98442234607D8431EA142FF
:1026BC0008D011F8012B03F8012FF8E7014602446A
:1026CC008A4200D110BD13F8014D02F8014DF7E715
:1026DC0003460244934200D1704703F8011BF9E70B
:1026EC0038B50D4B04461D68AB6B7BB91820FEF753
:1026FC006BF80A4A0A4BA863C0E90023094B012274
:10270C0083600B2383810023C0E904230022AB6B7D
:10271C001C615A6138BD00BF100000200E33CDABD8
:10272C0034126DE6ECDE05000346C9B2184613F808
:10273C00012B12B18A42F9D17047002918BF002031
:10274C00704710B50446FFF7EFFF18B9204600F0AC
:10275C0014F8204410BD10F8012B11F8013B012A8C
:10276C0028BF9A42F7D0D01A7047034611F8012BB4
:10277C0003F8012B002AF9D17047034613F8012BFB
:10278C00002AFBD1181A0138704710B56AB101390B
:10279C00841810F8013B11F8012F934203D1A04289
:1027AC0001D0002BF5D1981A10BD1046FCE738B5B6
:1027BC0003460C4669B9BDE83840FFF7B5BF05467E
:1027CC00431C21461846FFF7AFFF0028F7D12846D7
:1027DC0038BD0025F5E700002DE9F0478C4686460C
:1027EC00394E60461CF8014BA55D15F00805F8D173
:1027FC002D2C33D14FF001089CF8004000F1020C55
:10280C00002B5CD0102B0CD1302C0AD19CF8000082
:10281C0000F0DF0058284DD110239CF801400CF13A
:10282C00020C002608F10047013FB7FBF3F93046D4
:10283C0003FB197AA4F13005092D18D82C46A342B4
:10284C0024DD751C07D081451DD301D1A2451ADBAF
:10285C00012600FB03401CF8014BEBE72B2C08BFB7
:10286C009CF80040A84608BF00F1020CC8E7A4F190
:10287C004105192D01D8373CE1E7A4F16105192D6B
:10288C0004D8573CDBE74FF0FF36E4E7731C06D166
:10289C0022233846CEF8003042B9BDE8F087B8F1B3
:1028AC00000F00D04042002AF7D00EB10CF1FF31DE
:1028BC001160F2E73024002BB3D10823B1E7302CA0
:1028CC00A4D00A23ADE700BF9F2B080813460A4685
:1028DC00014602480068FFF77FBF00BF10000020D0
:1028EC001D0008085D000808850008088900080814
:1028FC00000000000A0A3D3D3D3D204C4F4F50204A
:10290C003D3D3D3D0043656C6C756C6172203D2016
:10291C0025642E436C6F7564203D2025642E007455
:10292C006F74616C2074696D653A20256C752C2070
:10293C006661696C757265733A202564000000004D
:10294C00000000000000000000000000000000007B
:10295C00A1000808C50008080000000000000000E5
:10296C00D1000808050108087D180808C7000808E8
:10297C00776972696E670053797374656D20736C37
:10298C0065657020636F6E66696775726174696FD7
:10299C006E20697320696E76616C69642E006261C9
:1029AC0075640053657269616C00555342536572CE
:1029BC0069616C31004A534F4E53747265616D4CB2
:1029CC006F6748616E646C657200617070002530D1
:1029DC0031307520005D20002C200028293A200081
:1029EC00205B00636F6465203D20002569006465F1
:1029FC007461696C73203D20000D0A006D0063004A
:102A0C0066006C6E00666E007400636F6465006433
:102A1C00657461696C00000000000000000000009B
:102A2C00CD0B0808F30B0808B30B08088B22080819
:102A3C000000000000000000A9100808C1100808E0
:102A4C007D180808C70008080000000000000000FE
:102A5C00D5100808E9100808251A0808BB0B080847
:102A6C000000000000000000CB0B0808010C080857
:102A7C00B9170808BD0B0808000000000000000092
:102A8C00C90B08080F0C0808D10F08082B0C0808F4
:102A9C0025592D256D2D25645425483A254D3A256B
:102AAC0053257A0061736374696D65000000000042
:102ABC0000000000871D0808771D0808791D08080C
:102ACC000000000000000000191E08087F1E080806
:102ADC00571E0808AD0A0808491E08081B1E0808DE
:102AEC002B1E0808791E08083B1E0808151E08082E
:102AFC000000000000000000572008084D200808C6
:102B0C0043200808BD1F0808372008082B20080898
:102B1C001F200808172008080D20080803200808A3
:102B2C00C71F0808000000000000000091200808E2
:102B3C00F9200808D5200808AD0A0808A5200808BF
:102B4C00C1200808B3200808CF20080893200808E3
:102B5C0097200808000000000000000099210808D8
:102B6C00A3210808AD210808B7210808C1210808CD
:102B7C00CD210808D9210808E5210808ED2108080D
:102B8C00F7210808012208082575007525303478CE
:102B9C000000002020202020202020202828282869
:102BAC002820202020202020202020202020202011
:102BBC002020208810101010101010101010101061
:102BCC001010100404040404040404040410101071
:102BDC00101010104141414141410101010101011D
:102BEC0001010101010101010101010101011010AB
:102BFC0010101010424242424242020202020202F1
:102C0C00020202020202020202020202020210107C
:102C1C001010200000000000000000000000000068
:102C2C000000000000000000000000000000000098
:102C3C000000000000000000000000000000000088
:102C4C000000000000000000000000000000000078
:102C5C000000000000000000000000000000000068
:102C6C000000000000000000000000000000000058
:102C7C000000000000000000000000000000000048
:102C8C000000000000000000000000000000000038
:102C9C0000000000B9030808590908086D18080855
:102CAC00991B0808D11B080861200808492208084C
:042CBC002D260808B1
:042CC0000000000010
:102CC40060EA0000742A08088C2A0808B02A080858
:102CD40014000020000000000000000000000000BC
:102CE40000000000000000000000000000000000E0
:102CF40000000000000000000000000000000000D0
:102D040000000000000000000000000000000000BF
:102D140000000000000000000000000000000000AF
:102D2400000000000000000000000000000000009F
:042D3400000000009B
:102D3800FFFFFFFF00000102030405060708090A58
:102D48000B0C0D0E0F101112131415161718191A53
:082D58001B1C1D1E1F2028009A
:042D6000785634125B
:040000050808001CCB
:00000001FF
