:020000040808EA
:1000000000000808841C0808000006000A0005011A
:080010000402DB070000000000
:040018006819080853
:10001C0009480A4908B5884205D0094A824202D0EB
:10002C00121A01F035FC0748074A0021121A01F098
:10003C003DFC064808BD00BF00000020F41B08086A
:10004C0068000020680000204405002044050020C2
:10005C0070B500F095FE0025054E064CA41BA408B7
:10006C00A54200D170BD56F8043B98470135F7E71F
:10007C00C41B0808E41B080800F03DB808B500F0E4
:10008C0017F9BDE8084000F03DBE00F0FFBA00F0E3
:10009C0005BB0078B0FA80F040097047012303706B
:1000AC00704710B50446006808B100F0F7FA204616
:1000BC0010BD0EB403B503AB53F8042B0021019310
:1000CC0000F04CFD02B05DF804EB03B070470EB4C9
:1000DC0003B503AB53F8042B0121019300F03EFD53
:1000EC0002B05DF804EB03B07047002340681A4679
:1000FC00194600F073BA08B501F0DEF9BDE8084006
:10010C004FF4165101F0BEB9F0B5051E8BB005DCED
:10011C0001F0D2F92449FFF7DAFF0A2501F0CCF9F6
:10012C003C23B5FBF3F2214903FB1253FFF7CFFF3E
:10013C0005AB0493012300268DF8243002231C4FB9
:10014C0010201C49CDE90766ADF819608DF81B60CD
:10015C0005978DF8183001F088FB0446E8B11022A1
:10016C00314601F0A3FB4FF47A7004234543A3807E
:10017C00089B2760A360E560089401A804A900F01F
:10018C00F3FA019808B100F089FA089840B1846834
:10019C000C2101F068FB2046F8E78DF82400ECE711
:1001AC0001200BB0F0BD00BF7C190808B11908087C
:1001BC0010000300C01B0808F8B5074601F07CF9D5
:1001CC001849FFF776FF0023174D1A461946686841
:1001DC0000F0FCF9002368681A46194600F0D6F9BD
:1001EC00002400226868114600F0E8F9064690B930
:1001FC000134BC420ADB01F05FF90C49FFF767FFE1
:10020C000948FFF772FF34462046F8BD4FF47A7068
:10021C0000F004FDE5E701F04FF90549FFF757FF42
:10022C00F2E700BFDB190808E0030020F719080803
:10023C00151A0808F8B5064601F03EF91749FFF7FC
:10024C0038FF002400F0FAF9154F00F0FFF90546CD
:10025C00E8B900F0D5F80134386000F0E7F9B442A1
:10026C0010DB104C01F028F90F49FFF730FF6068E4
:10027C002A46022100F09AF92046FFF736FF2C4659
:10028C002046F8BD4FF47A7000F0C8FCDDE701F0B1
:10029C0013F90649FFF71BFFF2E700BF191A08080C
:1002AC0038050020E0030020321A0808151A080847
:1002BC0030B54FF47A7093B000F0B0FC01F0FCF85C
:1002CC00364900F01BFC1420FFF776FF051E5FDD9E
:1002DC001420FFF7AFFF041E5ADD31490AA800F0C5
:1002EC005FFB0A22294606A800F098FB06A90AA87B
:1002FC0000F0BEFB2B4900F0C7FB05460A22214645
:10030C000EA800F08BFB0EA9284600F0B1FB0146AD
:10031C0002A800F067FB0EA800F0F8FA06A800F09F
:10032C00F5FA0AA800F0F2FA1F4B029A1B781F4943
:10033C008DF800300EA83C2300F08EFE0F9C7CB193
:10034C006368013B63605BB9236820469B689847F0
:10035C00A368013BA3601BB923682046DB68984760
:10036C0000244FF47A70124D00F058FC0EA8CDE921
:10037C000E448DF8404000F07AFD22460221686858
:10038C0000F014F92846FFF7B0FE02A800F0BEFA00
:10039C003C20FFF7B9FE13B030BD00BF4D1A080862
:1003AC005C1A0808631A0808780000206E1A0808FE
:1003BC00E003002001220A4B10B51A700023094CEF
:1003CC0003202360A380A371A3F58033A36000F006
:1003DC009FF82046BDE81040034A044901F03EBA9C
:1003EC00780000206C00002068000020AF00080896
:1003FC0008B5024B1B685B68019308BD9C0104089F
:10040C0008B5024B1B685B69019308BD9C0104088D
:10041C0008B5024B1B689B69019308BDC401040815
:10042C0008B5024B1B685B6A019308BDC401040844
:10043C0008B5024B1B689B6A019308BDC4010408F4
:10044C0008B5024B1B68DB6A019308BDC4010408A4
:10045C0008B5024B1B681B6B019308BDC401040853
:10046C0008B5024B1B685B6B019308BDC401040803
:10047C0008B5024B1B681B6C019308BDC401040832
:10048C0008B5024B1B68DB6B019308BD2000060806
:10049C0008B5024B1B681B68019308BD1C000608BD
:1004AC0008B5024B1B685B68019308BD1C0006086D
:1004BC0008B5024B1B681B69019308BD1C0006089C
:1004CC0008B5024B1B685B69019308BD1C0006084C
:1004DC0008B5024B1B689B69019308BD1C000608FC
:1004EC0008B5024B1B68DB69019308BD1C000608AC
:1004FC0008B5024B1B681B6A019308BD1C0006085B
:10050C0008B5024B1B681B6D019308BDA0010208C6
:10051C0008B5024B1B685B68019308BDA401040875
:10052C0008B5024B1B685B69019308BDA401040864
:10053C0008B5024B1B68DB6C019308BDA4010408D1
:10054C0008B5024B1B685B6D019308BDA401040840
:10055C0008B5034B1B68D3F89030019308BD00001D
:10056C00A401040808B5034B1B68D3F89C30019315
:10057C0008BD0000A401040808B5034B1B68D3F8A0
:10058C00B430019308BD0000A401040808B5024B67
:10059C001B685B68019308BDC801040808B5024BD1
:1005AC001B689B68019308BDC801040808B5024B81
:1005BC001B68DB68019308BDC801040808B5024B31
:1005CC001B681B69019308BDC801040808B5024BE0
:1005DC001B685B69019308BDC801040808B5024B90
:1005EC001B689B69019308BDC801040808B5024B40
:1005FC001B68DB69019308BDC801040808B5024BF0
:10060C001B681B6A019308BDC801040808B5024B9E
:10061C001B681B6B019308BDC801040808B5024B8D
:10062C001B685B6B019308BDC801040808B5024B3D
:10063C001B689B68019308BDCC01040808B5024BEC
:10064C001B68DB68019308BDCC01040808B5024B9C
:10065C001B685B69019308BDCC01040808B5024B0B
:10066C001B681B6A019308BDCC01040808B5024B3A
:10067C001B68DB6B019308BDCC01040808B5024B69
:10068C001B685B6C019308BDCC01040808B5024BD8
:10069C001B681B68019308BDA001040808B5024B38
:1006AC001B685B68019308BDA001040808B5024BE8
:1006BC001B689B68019308BDA001040808B5024B98
:1006CC001B685B6A019308BDA001040808B5024BC6
:1006DC001B68DB6A019308BDA001040808B5024B36
:1006EC001B681B6B019308BDA001040808B5024BE5
:1006FC001B685B6C019308BDA001040810B504468F
:10070C00006818B1FFF7CAFF0023236010BD38B58D
:10071C00B1F904300D4683800B4653F8062F04467E
:10072C00C0F806209B884381FFF7E8FF2B6813B1C4
:10073C00236000232B60204638BD000038B50C46E2
:10074C000546FFF7DBFF44B12088FFF79FFF2860C9
:10075C0028B12146228801F09BF8002038BD0148C1
:10076C00FCE700BFFCFEFFFFF0B52D4D0B7D0446F2
:10077C008BB00846AF1D002B38D00B681B79002BB3
:10078C0034D00022274B02A9043004930292ADF816
:10079C000C208DF80E20FFF7EFFEDDF80E3000B2C6
:1007AC00C5F80630BDF81230ADF80C00A8800299DF
:1007BC002846BB80FFF7C2FF02A8FFF79FFF00236C
:1007CC002360A380A37123814FF6FF736381B5F976
:1007DC0004302046A3803B682968C4F80630BB88E7
:1007EC006381FFF7ABFF20460BB0F0BD0026202342
:1007FC00CDE902360C4B322000930C49334602AA49
:10080C00FFF77EFE074B02A904934FF6F2630448F0
:10081C0002968DF80E60ADF80C30FFF778FFCBE741
:10082C007C0000200000FFFF811A08087A1A0808D3
:10083C000222002010B5084B084C1A60084B2060AF
:10084C00A080A071A360FFF763FE2046BDE81040B6
:10085C00044A054901F002B8880000207C00002001
:10086C000000FFFF68000020AF00080810B5044628
:10087C0001F06BF8431E20462344834206D90278CC
:10088C00197800F8011B03F80129F6E710BD70B5C3
:10089C000C46911E222922D8254668B1B0FBF2F6EF
:1008AC0002FB1600C1B2092894BF30315731C9B2CE
:1008BC00304605F8011BF0E72A46302123449342C9
:1008CC0002D902F8011BFAE75A1BAB4238BF0022CF
:1008DC0000232046AB54FFF7C9FF204670BD002013
:1008EC00FCE738B5031E0C4615460DDA2D22B3F184
:1008FC00004F0CBF1846584201230A702A4619446F
:10090C00FFF7C5FF204638BD0123F9E710B50446B3
:10091C000068FFF7C3FE204610BD10B50446006802
:10092C0008B1FFF7BBFE0023C4E90133236010BDFF
:10093C0038B504460D4600680131FFF7B7FE10B11B
:10094C00C4E90005012038BD10B50368044623B185
:10095C0043688B4201D3012010BD2046FFF7E8FF0E
:10096C000028F9D0A368002BF5D122681370F2E7A8
:10097C0070B50E46114604461546FFF7E5FF20B943
:10098C002046FFF7CAFF204670BD2A463146206834
:10099C00A56000F07DFF00212268A368D154F2E726
:1009AC0038B5002304460D46C0E900338360037359
:1009BC0039B1084600F0C9FF294602462046FFF728
:1009CC00D7FF204638BD884210B50B46044604D0EC
:1009DC00096821B19A68FFF7CBFF204610BDFFF7DD
:1009EC009CFFFAE7002310B50446C0E9003383608E
:1009FC000373FFF7E8FF204610BD38B505460C46DB
:100A0C0049B1084600F0A1FF214602462846FFF7EF
:100A1C00AFFF284638BDFFF780FFFAE710B500237B
:100A2C0004468AB0C4E90033A3602373084601A9C5
:100A3C00FFF757FF204601A9FFF7DFFF20460AB05A
:100A4C0010BD70B505460E4609B9002070BD6AB1DF
:100A5C00846814442146FFF777FF0028F5D02868F6
:100A6C00AB683146184400F04DFFAC600120EDE757
:100A7C0010B58A6809680446FFF7E3FF10B92046F1
:100A8C00FFF74BFF204610BD38B504460D4621B983
:100A9C002046FFF742FF204638BD084600F055FFC0
:100AAC00294602462046FFF7CCFF0028F0D0F2E79B
:100ABC00F8B506460D4600248F18BD420CD033689D
:100ACC0030469B6815F8011B9847031E01DB1C443C
:100ADC00F3E7002C08BF1C462046F8BD70B5054650
:100AEC000C46084649B100F030FF2B6802462146FF
:100AFC002846BDE87040DB68184770BD08B5FFF7A5
:100B0C00EDFF08BD03689B68184738B50D210546F5
:100B1C00FFF7F8FF0A2104462846FFF7F3FF2044AD
:100B2C0038BD0023012A98BF0A2230B58BB00C4681
:100B3C008DF8243009A92546B4FBF2F404FB1253BA
:100B4C00DBB2092B94BF30333733DBB2AA4201F846
:100B5C00013DF0D9FFF7C2FF0BB030BD2DE9F041DC
:100B6C0086B000AF05460E46381D142114463B6076
:100B7C00FFF7A4FD13280ED82846391DFFF7AEFF4A
:100B8C0004461EB12846FFF7C0FF04442046183720
:100B9C00BD46BDE8F08100F1080323F00703E846E9
:100BAC00ADEB030D2246411C3B686846FFF786FD02
:100BBC0069462846FFF792FF0446C546E1E738B57B
:100BCC00046805467CB16368013B63605BB92368CC
:100BDC0020469B689847A368013BA3601BB9236818
:100BEC002046DB689847284638BD0B68036013B174
:100BFC005A6801325A607047014B024A1A607047BA
:100C0C008C000020A81A0808024B1A68024B1A60C4
:100C1C00704700BF00000020900000200021FFF76B
:100C2C007FBC10B58368044613B103220146984774
:100C3C00204610BD10B50446FFF7F3FF204610BD4B
:100C4C0013B56C460B46024603C884E8030093E8D0
:100C5C00030082E8030094E8030083E8030002B079
:100C6C0010BD000000230348034A0449836000F0D0
:100C7C00F5BD00BF9400002068000020410C08085E
:100C8C00014B1860704700BF0400002008B5174BDB
:100C9C0043B100F011FC03681B699847002801DD83
:100CAC00AFF30080124B43B100F022FD03681B69C7
:100CBC009847002801DDAFF300800E4B0BB1AFF36A
:100CCC0000800D4B0BB1AFF300800C4B0BB1AFF3AD
:100CDC0000800B4B43B100F02DFC03681B69984757
:100CEC00002801DDAFF3008008BD00BF000000004C
:100CFC0000000000000000000000000000000000E8
:100D0C000000000008B5FFF7C1FFFFF779FB014BAE
:100D1C00186008BD380500200248034A0349121A1E
:100D2C0000F0B6BD0040024004400240F01B080831
:100D3C00002307B51A466FF077010093FFF712FCFA
:100D4C0003B05DF804FB000007B543880A2B08D0FC
:100D5C00502B0BD1094B1B684BB103B05DF804EB66
:100D6C001847FFF7E5FF03B05DF804FB00231A46B4
:100D7C006FF077010093FFF7F5FBF4E7A800002074
:100D8C0038B5124C00211248FFF7B0FC114D236806
:100D9C00AB420CBF012200220F4B1A7002D0FFF79E
:100DAC00BBFF2560FFF724FB044600F087FD0B4BCF
:100DBC0013B12046AFF3008000210848FFF756FC22
:100DCC00BDE8384000210648FFF7C2BB0040024096
:100DDC008D0C08081E1C279AA4000020000000009F
:100DEC00550D080870470020704710B504461021B7
:100DFC0000F039FD204610BD08B5FFF7F6FF08BD21
:100E0C00002230B54FF69C74026084808D888C80F3
:100E1C000C68858004600A6030BD10B5044600681B
:100E2C00FFF73CFC204610BD38B5C468F4B12378FC
:100E3C00022B03D104F10C00FFF7EFFF656835B10D
:100E4C002846FFF7EEFE1021284600F00CFDA568A1
:100E5C0035B12846FFF7E5FE1021284600F003FDCA
:100E6C002046BDE83840142100F0FDBC38BD0823F5
:100E7C0007B5ADF80030036800218DF80230037A15
:100E8C008DF80330436868460193FFF7F7FB03B016
:100E9C005DF804FB73B50E46044656F8043B0D464C
:100EAC0001A831460093FFF7A0FE009B019A236036
:100EBC000023626001A801930093FFF780FE304687
:100ECC00FFF77DFE2846082100F0CDFC204602B03D
:100EDC0070BD826810B50AB900F0C9FCC368BDE8E2
:100EEC001040184708B5006800F11001FFF7F1FF3A
:100EFC0008BD826810B50AB900F0B9FCC368BDE83A
:100F0C001040184708B5006800F11001FFF7F1FF19
:100F1C0008BD000038B500230446036010200D46C0
:100F2C00FFF7B3F828B10123C0E90133024BC560C8
:100F3C0003602060204638BDD01A080838B500235D
:100F4C0083608B6804460D462BB102229847EB68F0
:100F5C00E360AB68A360204638BD0000F0B589B0F3
:100F6C0004686846FFF74CFF4FF00203D4E84F2F9C
:100F7C00002A03D1C4E8413F0029F7D125D104F15F
:100F8C000C0569462846FFF73BFF0123BFF35B8F37
:100F9C0063700020BFF35B8F04F1080353E8006F0C
:100FAC0043E80002002AF9D1BFF35B8F6EB1FFF763
:100FBC00BFFA78B129463046FFF78BFF3046FFF772
:100FCC0030FE1021304600F04EFC6846FFF725FF3E
:100FDC0009B0F0BD314602A8FFF7B0FFE068B4F9E4
:100FEC00105008B100F096FC06901020ADF81C5083
:100FFC00FFF74BF80546E8B1002787601820FFF78C
:10100C0044F8044688B10146876002A8FFF718FE31
:10101C00049BA268A360059B0492E26806A9E360A6
:10102C0004F110000592FFF7EBFE084B2C60EB600F
:10103C00074BAB6006A8FFF7F0FE02A8FFF7F1FD27
:10104C00002229460348FFF77BFAB7E7F10E0808A0
:10105C00891108084D1708082DE9F0478AB0054694
:10106C000C46174698469DF84890FFF7EFFA07AEE6
:10107C00824638BB4FF62E73059005A93046ADF865
:10108C001830FFF7BDFE1420FEF7FFFF044648B1F1
:10109C00022303700123C0E901AA437031460C30CE
:1010AC00FFF7AEFE2846214640F8044BFFF732FF0F
:1010BC003046FFF7B2FE05A8FFF7AFFE28460AB090
:1010CC00BDE8F0870C234FF0000A1420CDE908AAE4
:1010DC000793FEF7DAFF014628B1C0E901AA80F8B0
:1010EC0000A080F801A004A80391FFF713FF224B86
:1010FC0008200893FEF7C9FF824628B1039B04A978
:10110C0040F8043BFFF771FD4246394620460096F5
:10111C005FFA89F3CDF824A0FFF7A0FAB8B9039BC6
:10112C005B7803F0FF0293B94FF69C7305A903A8F3
:10113C000592ADF81830FFF711FF05A8FFF76DFE0B
:10114C0005A80999FFF7A6FE06A8FFF738FD039B33
:10115C0004A906A80593FFF748FD059B069A2B608A
:10116C0000236A6006A806930593FFF728FD04A8E0
:10117C00FFF725FDA2E700BF4D120808022AF8B5BB
:10118C00054607D0032A18D0012A01D10B68036049
:10119C000020F8BD18200E68FEF777FF044650B10A
:1011AC003146FFF7CBFE3069B6F9147008B100F088
:1011BC00B1FB2061A7822C60EAE70468002CE7D021
:1011CC0004F11000FFF729FE2046FFF72AFD182135
:1011DC00204600F048FBDBE738B5002383608B68C2
:1011EC0004460D462BB102229847EB68E360AB68CE
:1011FC00A360204638BD022A70B5044607D0032AE6
:10120C0012D0012A01D10B680360002070BD14209C
:10121C000E68FEF73AFF054620B13146FFF7DCFFBA
:10122C00337C2B742560F0E70468002CEDD020464D
:10123C00FFF7F7FC1421204600F015FBE5E7000052
:10124C00F0B5044689B00D4601A81146FFF722FE01
:10125C00A4B124B21DB1284600F05CFB054601A8E0
:10126C0003A90395ADF81040FFF778FE03A8FFF72C
:10127C00D4FD02A8FFF7A3FC09B0F0BD0123019D2A
:10128C00D5E84F2F002A03D1C5E8413F0029F7D1FB
:10129C00EFD12B73BFF35B8F6B70BFF35B8F2B1D89
:1012AC0053E8006F43E80042002AF9D1BFF35B8F8B
:1012BC00002EDED02046FFF73BF9074660B13046E2
:1012CC0005F10C01FFF715FE3046FFF7AAFC1021C3
:1012DC00304600F0C8FACCE7314603A8FFF77CFF94
:1012EC002B7B10208DF81C30FEF7CFFE0546D0B1BD
:1012FC0087601420FEF7C9FE044678B1014687606A
:10130C0003A8FFF79DFC059BA268A360069B0592B2
:10131C00E268E3609DF81C3006922374064B2C6047
:10132C00EB60064BAB6003A8FFF77BFC0022294661
:10133C000348FFF705F9C7E7110F0808031208085F
:10134C004D170808704710B50446082100F08BFAB9
:10135C00204610BDF8B50E46002400F10807051D07
:10136C0017F8011D0A223046FFF7DBFBAF4204449D
:10137C0001D12046F8BD002CF2D02E213046FFF7CB
:10138C00C1FB0444ECE70000024A02600022426008
:10139C00704700BFEC1A0808024A02600A684260F3
:1013AC00704700BFEC1A0808014AC0E900217047D9
:1013BC00EC1A080810B59DF8084044EA032444EAE6
:1013CC00024444EA0164446010BD000037B5044D8A
:1013DC0005609DF818500095FFF7ECFF03B030BD89
:1013EC00EC1A080841747047704708B50021007C5E
:1013FC00FFF76EF840EAE07008BD08B50121007CEB
:10140C00FFF766F840EAE07008BD08B5007CFFF70E
:10141C0057F820EAE07008BD08B5007CFFF748F8E3
:10142C0020EAE07008BD38B50446007C0D46FFF795
:10143C0047F8002801DC607C28B12946207CFFF7A6
:10144C004FF820EAE07038BD007CFFF751B810B5BA
:10145C000446142100F007FA204610BD10B54FF4D5
:10146C007A73044608460021C4E90113044B207426
:10147C002360012311466374FFF70AF8204610BD60
:10148C00001B08080022007CFFF70AB810B50446C0
:10149C001422002100F00AFA054B20466360054B2C
:1014AC00E36040F2011323818123238210BD00BF2E
:1014BC00DC000020DD01002030B50F4D87B001A805
:1014CC00FFF7E4FF2978BFF35B8F11F0010410D113
:1014DC002846FEF7DEFD60B1214601AA0748FFF75A
:1014EC00BDFF2846FEF7DAFD054A0649034800F021
:1014FC00B5F9024807B030BDAC000020B4000020A4
:10150C0068000020F513080810B5044614220021C9
:10151C0000F0CCF9054B20466360054BE36040F2CC
:10152C00011323818123238210BD00BF5E020020A2
:10153C005F03002010B50F4C86B001A8FFF7E4FF45
:10154C002378BFF35B8FDB0710D42046FEF7A1FD99
:10155C0060B1012101AA0848FFF780FF2046FEF781
:10156C009DFD064A0649044800F078F9024806B089
:10157C0010BD00BFB0000020C80000206800002093
:10158C00F5130808002240681146FFF717B8F0B5AC
:10159C00002685B0044610460F461546039600F00B
:1015AC00D4F97B6881B20096284603AAFEF768FF3F
:1015BC0030B131462046FFF7F7FE204605B0F0BDAE
:1015CC00204603A9FFF7E8FEF7E700224068114622
:1015DC00FFF714B8002240681146FFF71FB800222D
:1015EC004068FFF713B80022406881F00101FEF754
:1015FC00FDBF002340681A461946FEF7E7BF0022DC
:10160C0040681146FEF7CABF002202214068FEF76F
:10161C00CDBF002340681A46FEF7B8BF10B528248A
:10162C00074B22461846002100F040F94FF0FF32DC
:10163C0042600422034B04805A60034A1A6010BDB6
:10164C00E8030020E0030020301B080870474174B9
:10165C00704708B5007CFEF70BFF20EAE07008BD70
:10166C0008B5007CFEF7E4FE20EAE07008BD08B582
:10167C00007CFEF7EDFE40EAE07008BD08B5007C8A
:10168C00FEF7DEFE40EAE07008BD007CFEF7E8BE27
:10169C0070B5467C04460D462EB12946207CBDE82B
:1016AC007040FEF7BDBE007CFEF7E2FE0028F4DCC5
:1016BC00304670BD10B50446142100F0D4F8204615
:1016CC0010BD00004FF0000C10B504460846114642
:1016DC004FF47A72C4E901C2044A207422600122D8
:1016EC0062741A46FEF794FE204610BD641B08086F
:1016FC0038B50D4D2978BFF35B8F11F0010411D172
:10170C002846FEF7C6FC68B12146084A084B094832
:10171C00FFF7D8FF2846FEF7C1FC074A07490548E2
:10172C0000F09CF8034838BD10040020140400207D
:10173C00980400201C050020680000205916080899
:10174C0010B5836804460BB900F091F8C36898474C
:10175C00A3681BB103222146204698472046BDE8CA
:10176C001040102100F07FB8002340681A46FEF7A5
:10177C000DBF002202214068FEF718BF002240680E
:10178C001146FEF70BBF002240681146FEF716BF4C
:10179C00002340681A461946FEF718BF002340681C
:1017AC001A461946FEF71ABF0022406881F0010163
:1017BC00FEF71CBF00224068FEF728BF00224068DD
:1017CC001146FEF72BBF002240681146FEF716BFEC
:1017DC0070B51546002686B0044604A8FFF7D4FD64
:1017EC002846039600F0B1F80A4B009681B25B686C
:1017FC00284603AAFEF744FE30B131462046FFF7D7
:10180C00D3FD204606B070BD204603A9FFF7C4FDEA
:10181C00F7E700BFE0030020024B034A1A600022E6
:10182C005A60704730050020941B0808002313B53C
:10183C00074C1A46194620460093FFF7C7FD204671
:10184C00044A054902B0BDE8104000F007B800BFDB
:10185C003C05002068000020511308080B46014687
:10186C00184600F007B8FEF712BCFEF70EBC08B520
:10187C00FEF72CFF10B504460448134620B10A4667
:10188C0002202146AFF3008010BD00BF0000000015
:10189C000A44914200F1FF3300D1704710B511F8A2
:1018AC00014B914203F8014FF9D110BD034602449C
:1018BC00934200D1704703F8011BF9E738B50D4B83
:1018CC0004461D68AB6B7BB91820FEF7DFFE0A4A95
:1018DC000A4BA863C0E90023094B012283600B2348
:1018EC0083810023C0E904230022AB6B1C615A6185
:1018FC0038BD00BF040000200E33CDAB34126DE6B2
:10190C00ECDE0500034611F8012B03F8012B002A2D
:10191C00F9D17047024B0146186800F003B800BFBC
:10192C000400002070B5044608460D4600F00DF882
:10193C00461C31462046FEF7D1FE044618B132460D
:10194C002946FFF7A5FF204670BD034613F8012B6F
:10195C00002AFBD1181A0138704700001D00080836
:10196C005D000808850008088900080800000000D0
:10197C005A65726F20736C6565702074696D652C87
:10198C002061646A757374696E6720746F203130DE
:10199C00207365636F6E647320736C65657020745F
:1019AC00696D652E00476F696E6720746F20736CCC
:1019BC0065657020666F72202564206D696E757484
:1019CC006573202564207365636F6E64732E00430A
:1019DC006F6E6E656374696E6720746F2063656CDF
:1019EC006C756C6172202E2E2E2000436F756C640A
:1019FC006E277420636F6E6E65637420746F206342
:101A0C00656C6C756C61722E004F4B2E00436F6EC3
:101A1C006E656374696E6720746F20636C6F756498
:101A2C00202E2E2E2000436F756C646E277420635D
:101A3C006F6E6E65637420746F20436C6F75642ECB
:101A4C00003D3D3D3D204C4F4F50203D3D3D3D0028
:101A5C0063656C6C3A20002C2020636C6F75643AC3
:101A6C002000636F6E6E65637454696D65007769F1
:101A7C0072696E670053797374656D20736C65655C
:101A8C007020636F6E66696775726174696F6E2022
:101A9C00697320696E76616C69642E0061707000E8
:101AAC0025592D256D2D25645425483A254D3A256B
:101ABC0053257A0061736374696D65000000000042
:101ACC0000000000F10D0808F70D0808350E080895
:101ADC00050E0808F30D08080000000000000000C7
:101AEC00611308085113080853130808000000007C
:101AFC0000000000F51308085B14080833140808EC
:101B0C00BD0A080825140808F71308080714080864
:101B1C005514080817140808F113080800000000F1
:101B2C00000000001F160808151608080B160808F8
:101B3C0091150808FF150808F7000808F3150808A0
:101B4C00EB150808E1150808D71508089B150808B7
:101B5C00000000000000000059160808C116080813
:101B6C009D160808BD0A08086D160808891608088D
:101B7C007B160808971608085B1608085F160808F5
:101B8C000000000000000000751708087F17080807
:101B9C0089170808931708089D170808A91708083B
:101BAC00B5170808C1170808C9170808D31708087B
:101BBC00DD17080800000000C10308083D080808EC
:101BCC00050C0808150C0808710C080829160808DB
:101BDC00251808083918080800000000000000004B
:041BEC0000000000F5
:041BF00000000000F1
:101BF400C01A0808080000200000000000000000CF
:101C040000000000000000000000000000000000D0
:101C140000000000000000000000000000000000C0
:101C240000000000000000000000000000000000B0
:101C340000000000000000000000000000000000A0
:101C44000000000000000000000000000000000090
:081C5400000000000000000088
:101C5C00FFFFFFFF00000102030405060708090A45
:101C6C000B0C0D0E0F101112131415161718191A40
:081C7C001B1C1D1E1F20280087
:041C84007856341248
:040000050808001CCB
:00000001FF
