:020000040808EA
:1000000000000808541C0808000006000A0005014A
:080010000402DB070000000000
:04001800501908086B
:10001C0009480A4908B5884205D0094A824202D0EB
:10002C00121A01F029FC0748074A0021121A01F0A4
:10003C0031FC064808BD00BF00000020C41B0808A6
:10004C0068000020680000204405002044050020C2
:10005C0070B500F089FE0025054E064CA41BA408C3
:10006C00A54200D170BD56F8043B98470135F7E71F
:10007C00A01B0808C01B080800F03DB808B500F02C
:10008C0017F9BDE8084000F031BE00F0F7BA00F0F7
:10009C00FDBA0078B0FA80F0400970470123037074
:1000AC00704710B50446006808B100F0EFFA20461E
:1000BC0010BD0EB403B503AB53F8042B0021019310
:1000CC0000F040FD02B05DF804EB03B070470EB4D5
:1000DC0003B503AB53F8042B0121019300F032FD5F
:1000EC0002B05DF804EB03B07047002340681A4679
:1000FC00194600F06BBA08B501F0D2F9BDE808401A
:10010C004FF4165101F0B2B9F0B5051E8BB005DCF9
:10011C0001F0C6F92449FFF7DAFF0A2501F0C0F90E
:10012C003C23B5FBF3F2214903FB1253FFF7CFFF3E
:10013C0005AB0493012300268DF8243002231C4FB9
:10014C0010201C49CDE90766ADF819608DF81B60CD
:10015C0005978DF8183001F07CFB0446E8B11022AD
:10016C00314601F097FB4FF47A7004234543A3808A
:10017C00089B2760A360E560089401A804A900F01F
:10018C00EBFA019808B100F081FA089840B1846844
:10019C000C2101F05CFB2046F8E78DF82400ECE71D
:1001AC0001200BB0F0BD00BF6419080899190808AC
:1001BC00100003009C1B0808F8B5074601F070F905
:1001CC001849FFF776FF0023174D1A461946686841
:1001DC0000F0F4F9002368681A46194600F0CEF9CD
:1001EC00002400226868114600F0E0F9064690B938
:1001FC000134BC420ADB01F053F90C49FFF767FFED
:10020C000948FFF772FF34462046F8BD4FF47A7068
:10021C0000F0F8FCE5E701F043F90549FFF757FF5B
:10022C00F2E700BFC3190808E0030020DF19080833
:10023C00FD190808F8B5064601F032F91749FFF721
:10024C0038FF002400F0F2F9154F00F0F7F90546DD
:10025C00E8B900F0CDF80134386000F0DFF9B442B1
:10026C0010DB104C01F01CF90F49FFF730FF6068F0
:10027C002A46022100F092F92046FFF736FF2C4661
:10028C002046F8BD4FF47A7000F0BCFCDDE701F0BD
:10029C0007F90649FFF71BFFF2E700BF011A080830
:1002AC0038050020E00300201A1A0808FD19080878
:1002BC0030B54FF47A7093B000F0A4FC5A20FFF7DD
:1002CC007BFF051E5FDD3C20FFF7B4FF041E5ADDEB
:1002DC002F490AA800F05CFB0A22294606A800F068
:1002EC0095FB06A90AA800F0BBFB2A4900F0C4FB49
:1002FC0005460A2221460EA800F088FB0EA92846C6
:10030C0000F0AEFB014602A800F064FB0EA800F062
:10031C00F5FA06A800F0F2FA0AA800F0EFFA1E4B64
:10032C00029A1B781D498DF800300EA83C2300F072
:10033C0087FE0F9C7CB16368013B63605BB92368EB
:10034C0020469B689847A368013BA3601BB92368B0
:10035C002046DB68984700244FF47A70104D00F06B
:10036C0051FC0EA8CDE90E448DF8404000F073FD11
:10037C0022460221686800F011F92846FFF7B5FE05
:10038C0002A800F0BBFA3C20FFF7BEFE13B030BD54
:10039C00351A08083C1A080878000020471A080883
:1003AC00E003002001220A4B10B51A700023094CFF
:1003BC0003202360A380A371A3F58033A36000F016
:1003CC009FF82046BDE81040034A044901F03ABAB0
:1003DC00780000206C00002068000020AF000808A6
:1003EC0008B5024B1B685B68019308BD9C010408AF
:1003FC0008B5024B1B685B69019308BD9C0104089E
:10040C0008B5024B1B689B69019308BDC401040825
:10041C0008B5024B1B685B6A019308BDC401040854
:10042C0008B5024B1B689B6A019308BDC401040804
:10043C0008B5024B1B68DB6A019308BDC4010408B4
:10044C0008B5024B1B681B6B019308BDC401040863
:10045C0008B5024B1B685B6B019308BDC401040813
:10046C0008B5024B1B681B6C019308BDC401040842
:10047C0008B5024B1B68DB6B019308BD2000060816
:10048C0008B5024B1B681B68019308BD1C000608CD
:10049C0008B5024B1B685B68019308BD1C0006087D
:1004AC0008B5024B1B681B69019308BD1C000608AC
:1004BC0008B5024B1B685B69019308BD1C0006085C
:1004CC0008B5024B1B689B69019308BD1C0006080C
:1004DC0008B5024B1B68DB69019308BD1C000608BC
:1004EC0008B5024B1B681B6A019308BD1C0006086B
:1004FC0008B5024B1B681B6D019308BDA0010208D7
:10050C0008B5024B1B685B68019308BDA401040885
:10051C0008B5024B1B685B69019308BDA401040874
:10052C0008B5024B1B68DB6C019308BDA4010408E1
:10053C0008B5024B1B685B6D019308BDA401040850
:10054C0008B5034B1B68D3F89030019308BD00002D
:10055C00A401040808B5034B1B68D3F89C30019325
:10056C0008BD0000A401040808B5034B1B68D3F8B0
:10057C00B430019308BD0000A401040808B5024B77
:10058C001B685B68019308BDC801040808B5024BE1
:10059C001B689B68019308BDC801040808B5024B91
:1005AC001B68DB68019308BDC801040808B5024B41
:1005BC001B681B69019308BDC801040808B5024BF0
:1005CC001B685B69019308BDC801040808B5024BA0
:1005DC001B689B69019308BDC801040808B5024B50
:1005EC001B68DB69019308BDC801040808B5024B00
:1005FC001B681B6A019308BDC801040808B5024BAF
:10060C001B681B6B019308BDC801040808B5024B9D
:10061C001B685B6B019308BDC801040808B5024B4D
:10062C001B689B68019308BDCC01040808B5024BFC
:10063C001B68DB68019308BDCC01040808B5024BAC
:10064C001B685B69019308BDCC01040808B5024B1B
:10065C001B681B6A019308BDCC01040808B5024B4A
:10066C001B68DB6B019308BDCC01040808B5024B79
:10067C001B685B6C019308BDCC01040808B5024BE8
:10068C001B681B68019308BDA001040808B5024B48
:10069C001B685B68019308BDA001040808B5024BF8
:1006AC001B689B68019308BDA001040808B5024BA8
:1006BC001B685B6A019308BDA001040808B5024BD6
:1006CC001B68DB6A019308BDA001040808B5024B46
:1006DC001B681B6B019308BDA001040808B5024BF5
:1006EC001B685B6C019308BDA001040810B504469F
:1006FC00006818B1FFF7CAFF0023236010BD38B59E
:10070C00B1F904300D4683800B4653F8062F04468E
:10071C00C0F806209B884381FFF7E8FF2B6813B1D4
:10072C00236000232B60204638BD000038B50C46F2
:10073C000546FFF7DBFF44B12088FFF79FFF2860D9
:10074C0028B12146228801F097F8002038BD0148D5
:10075C00FCE700BFFCFEFFFFF0B52D4D0B7D044602
:10076C008BB00846AF1D002B38D00B681B79002BC3
:10077C0034D00022274B02A9043004930292ADF826
:10078C000C208DF80E20FFF7EFFEDDF80E3000B2D6
:10079C00C5F80630BDF81230ADF80C00A8800299EF
:1007AC002846BB80FFF7C2FF02A8FFF79FFF00237C
:1007BC002360A380A37123814FF6FF736381B5F986
:1007CC0004302046A3803B682968C4F80630BB88F7
:1007DC006381FFF7ABFF20460BB0F0BD0026202352
:1007EC00CDE902360C4B322000930C49334602AA59
:1007FC00FFF77EFE074B02A904934FF6F263044801
:10080C0002968DF80E60ADF80C30FFF778FFCBE751
:10081C007C0000200000FFFF5A1A0808531A080831
:10082C000222002010B5084B084C1A60084B2060BF
:10083C00A080A071A360FFF763FE2046BDE81040C6
:10084C00044A054900F0FEBF880000207C0000200F
:10085C000000FFFF68000020AF00080810B5044638
:10086C0001F067F8431E20462344834206D90278E0
:10087C00197800F8011B03F80129F6E710BD70B5D3
:10088C000C46911E222922D8254668B1B0FBF2F6FF
:10089C0002FB1600C1B2092894BF30315731C9B2DE
:1008AC00304605F8011BF0E72A46302123449342D9
:1008BC0002D902F8011BFAE75A1BAB4238BF0022DF
:1008CC0000232046AB54FFF7C9FF204670BD002023
:1008DC00FCE738B5031E0C4615460DDA2D22B3F194
:1008EC00004F0CBF1846584201230A702A4619447F
:1008FC00FFF7C5FF204638BD0123F9E710B50446C4
:10090C000068FFF7C3FE204610BD10B50446006812
:10091C0008B1FFF7BBFE0023C4E90133236010BD0F
:10092C0038B504460D4600680131FFF7B7FE10B12B
:10093C00C4E90005012038BD10B50368044623B195
:10094C0043688B4201D3012010BD2046FFF7E8FF1E
:10095C000028F9D0A368002BF5D122681370F2E7B8
:10096C0070B50E46114604461546FFF7E5FF20B953
:10097C002046FFF7CAFF204670BD2A463146206844
:10098C00A56000F079FF00212268A368D154F2E73A
:10099C0038B5002304460D46C0E900338360037369
:1009AC0039B1084600F0C5FF294602462046FFF73C
:1009BC00D7FF204638BD884210B50B46044604D0FC
:1009CC00096821B19A68FFF7CBFF204610BDFFF7ED
:1009DC009CFFFAE7002310B50446C0E9003383609E
:1009EC000373FFF7E8FF204610BD38B505460C46EB
:1009FC0049B1084600F09DFF214602462846FFF704
:100A0C00AFFF284638BDFFF780FFFAE710B500238B
:100A1C0004468AB0C4E90033A3602373084601A9D5
:100A2C00FFF757FF204601A9FFF7DFFF20460AB06A
:100A3C0010BD70B505460E4609B9002070BD6AB1EF
:100A4C00846814442146FFF777FF0028F5D0286806
:100A5C00AB683146184400F049FFAC600120EDE76B
:100A6C0010B58A6809680446FFF7E3FF10B9204601
:100A7C00FFF74BFF204610BD38B504460D4621B993
:100A8C002046FFF742FF204638BD084600F051FFD4
:100A9C00294602462046FFF7CCFF0028F0D0F2E7AB
:100AAC00F8B506460D4600248F18BD420CD03368AD
:100ABC0030469B6815F8011B9847031E01DB1C444C
:100ACC00F3E7002C08BF1C462046F8BD70B5054660
:100ADC000C46084649B100F02CFF2B680246214613
:100AEC002846BDE87040DB68184770BD03689B68FA
:100AFC00184738B50D210546FFF7F8FF0A210446C3
:100B0C002846FFF7F3FF204438BD0023012A98BF85
:100B1C000A2230B58BB00C468DF8243009A9254635
:100B2C00B4FBF2F404FB1253DBB2092B94BF303349
:100B3C003733DBB2AA4201F8013DF0D9FFF7C6FF0B
:100B4C000BB030BD2DE9F04186B000AF05460E4626
:100B5C00381D142114463B60FFF7A8FD13280ED84E
:100B6C002846391DFFF7B2FF04461EB12846FFF791
:100B7C00C0FF044420461837BD46BDE8F08100F1A3
:100B8C00080323F00703E846ADEB030D2246411C96
:100B9C003B686846FFF78AFD69462846FFF796FFD3
:100BAC000446C546E1E738B5046805467CB1636880
:100BBC00013B63605BB9236820469B689847A36838
:100BCC00013BA3601BB923682046DB689847284685
:100BDC0038BD0B68036013B15A6801325A60704714
:100BEC00014B024A1A6070478C000020811A0808D9
:100BFC00024B1A68024B1A60704700BF00000020BD
:100C0C00900000200021FFF783BC10B583680446D8
:100C1C0013B1032201469847204610BD10B5044677
:100C2C00FFF7F3FF204610BD13B56C460B4602468A
:100C3C0003C884E8030093E8030082E8030094E807
:100C4C00030083E8030002B010BD0000002303483A
:100C5C00034A0449836000F0F5BD00BF94000020F6
:100C6C0068000020290C0808014B1860704700BF71
:100C7C000400002008B5174B43B100F011FC0368C9
:100C8C001B699847002801DDAFF30080124B43B17C
:100C9C0000F022FD03681B699847002801DDAFF3C3
:100CAC0000800E4B0BB1AFF300800D4B0BB1AFF3CB
:100CBC0000800C4B0BB1AFF300800B4B43B100F039
:100CCC002DFC03681B699847002801DDAFF30080F9
:100CDC0008BD00BF00000000000000000000000084
:100CEC0000000000000000000000000008B5FFF745
:100CFC00C1FFFFF77DFB014B186008BD38050020D4
:100D0C000248034A0349121A00F0B6BD00400240E3
:100D1C0004400240C01B0808002307B51A466FF0B8
:100D2C0077010093FFF716FC03B05DF804FB00009D
:100D3C0007B543880A2B08D0502B0BD1094B1B68E5
:100D4C004BB103B05DF804EB1847FFF7E5FF03B0B8
:100D5C005DF804FB00231A466FF077010093FFF750
:100D6C00F9FBF4E7A800002038B5124C002112481A
:100D7C00FFF7B4FC114D2368AB420CBF01220022DB
:100D8C000F4B1A7002D0FFF7BBFF2560FFF728FB53
:100D9C00044600F087FD0B4B13B12046AFF30080E7
:100DAC0000210848FFF75AFCBDE8384000210648EE
:100DBC00FFF7C6BB00400240750C08081E1C279AA2
:100DCC00A4000020000000003D0D08087047002022
:100DDC00704710B50446102100F039FD204610BDB7
:100DEC0008B5FFF7F6FF08BD002230B54FF69C742E
:100DFC00026084808D888C800C68858004600A6019
:100E0C0030BD10B504460068FFF740FC204610BD0D
:100E1C0038B5C468F4B12378022B03D104F10C006B
:100E2C00FFF7EFFF656835B12846FFF7EEFE10219E
:100E3C00284600F00CFDA56835B12846FFF7E5FE05
:100E4C001021284600F003FD2046BDE8384014214F
:100E5C0000F0FDBC38BD082307B5ADF800300368C1
:100E6C0000218DF80230037A8DF803304368684610
:100E7C000193FFF7FBFB03B05DF804FB73B50E4663
:100E8C00044656F8043B0D4601A831460093FFF783
:100E9C00A0FE009B019A23600023626001A80193CD
:100EAC000093FFF780FE3046FFF77DFE28460821B1
:100EBC0000F0CDFC204602B070BD826810B50AB9B6
:100ECC0000F0C9FCC368BDE81040184708B50068BD
:100EDC0000F11001FFF7F1FF08BD826810B50AB9E7
:100EEC0000F0B9FCC368BDE81040184708B50068AD
:100EFC0000F11001FFF7F1FF08BD000038B5002329
:100F0C000446036010200D46FFF7BFF828B10123FB
:100F1C00C0E90133024BC56003602060204638BD38
:100F2C00AC1A080838B5002383608B6804460D465C
:100F3C002BB102229847EB68E360AB68A3602046B4
:100F4C0038BD0000F0B589B004686846FFF74CFF67
:100F5C004FF00203D4E84F2F002A03D1C4E8413FDD
:100F6C000029F7D125D104F10C0569462846FFF775
:100F7C003BFF0123BFF35B8F63700020BFF35B8FDC
:100F8C0004F1080353E8006F43E80002002AF9D18A
:100F9C00BFF35B8F6EB1FFF7C3FA78B129463046C9
:100FAC00FFF78BFF3046FFF730FE1021304600F084
:100FBC004EFC6846FFF725FF09B0F0BD314602A88C
:100FCC00FFF7B0FFE068B4F9105008B100F096FCE0
:100FDC0006901020ADF81C50FFF757F80546E8B105
:100FEC00002787601820FFF750F8044688B10146A7
:100FFC00876002A8FFF718FE049BA268A360059BFC
:10100C000492E26806A9E36004F110000592FFF770
:10101C00EBFE084B2C60EB60074BAB6006A8FFF7B0
:10102C00F0FE02A8FFF7F1FD002229460348FFF766
:10103C007FFAB7E7D90E08087111080835170808A8
:10104C002DE9F0478AB005460C46174698469DF8A0
:10105C004890FFF7F3FA07AE824638BB4FF62E7373
:10106C00059005A93046ADF81830FFF7BDFE1420E9
:10107C00FFF70BF8044648B1022303700123C0E9C3
:10108C0001AA437031460C30FFF7AEFE28462146CC
:10109C0040F8044BFFF732FF3046FFF7B2FE05A8CD
:1010AC00FFF7AFFE28460AB0BDE8F0870C234FF0DF
:1010BC00000A1420CDE908AA0793FEF7E6FF0146C3
:1010CC0028B1C0E901AA80F800A080F801A004A80A
:1010DC000391FFF713FF224B08200893FEF7D5FF6F
:1010EC00824628B1039B04A940F8043BFFF771FD2D
:1010FC0042463946204600965FFA89F3CDF824A083
:10110C00FFF7A4FAB8B9039B5B7803F0FF0293B91D
:10111C004FF69C7305A903A80592ADF81830FFF79C
:10112C0011FF05A8FFF76DFE05A80999FFF7A6FEAC
:10113C0006A8FFF738FD039B04A906A80593FFF743
:10114C0048FD059B069A2B6000236A6006A806934F
:10115C000593FFF728FD04A8FFF725FDA2E700BFC4
:10116C0035120808022AF8B5054607D0032A18D00C
:10117C00012A01D10B6803600020F8BD18200E680D
:10118C00FEF783FF044650B13146FFF7CBFE3069C2
:10119C00B6F9147008B100F0B1FB2061A7822C6085
:1011AC00EAE70468002CE7D004F11000FFF729FEF1
:1011BC002046FFF72AFD1821204600F048FBDBE70C
:1011CC0038B5002383608B6804460D462BB1022290
:1011DC009847EB68E360AB68A360204638BD022AF1
:1011EC0070B5044607D0032A12D0012A01D10B682E
:1011FC000360002070BD14200E68FEF746FF054604
:10120C0020B13146FFF7DCFF337C2B742560F0E70F
:10121C000468002CEDD02046FFF7F7FC1421204683
:10122C0000F015FBE5E70000F0B5044689B00D466B
:10123C0001A81146FFF722FEA4B124B21DB1284625
:10124C0000F05CFB054601A803A90395ADF810401E
:10125C00FFF778FE03A8FFF7D4FD02A8FFF7A3FC65
:10126C0009B0F0BD0123019DD5E84F2F002A03D111
:10127C00C5E8413F0029F7D1EFD12B73BFF35B8F4A
:10128C006B70BFF35B8F2B1D53E8006F43E800427C
:10129C00002AF9D1BFF35B8F002EDED02046FFF77A
:1012AC003FF9074660B1304605F10C01FFF715FE1A
:1012BC003046FFF7AAFC1021304600F0C8FACCE704
:1012CC00314603A8FFF77CFF2B7B10208DF81C30D8
:1012DC00FEF7DBFE0546D0B187601420FEF7D5FE85
:1012EC00044678B10146876003A8FFF79DFC059B77
:1012FC00A268A360069B0592E268E3609DF81C302F
:10130C0006922374064B2C60EB60064BAB6003A873
:10131C00FFF77BFC002229460348FFF709F9C7E7D2
:10132C00F90E0808EB11080835170808704710B5B6
:10133C000446082100F08BFA204610BDF8B50E4685
:10134C00002400F10807051D17F8011D0A2230467C
:10135C00FFF7DBFBAF42044401D12046F8BD002C63
:10136C00F2D02E213046FFF7C1FB0444ECE700001D
:10137C00024A026000224260704700BFC81A080887
:10138C00024A02600A684260704700BFC81A080827
:10139C00014AC0E900217047C81A080810B59DF829
:1013AC00084044EA032444EA024444EA01644460E9
:1013BC0010BD000037B5044D05609DF81850009520
:1013CC00FFF7ECFF03B030BDC81A08084174704732
:1013DC00704708B50021007CFFF772F840EAE07016
:1013EC0008BD08B50121007CFFF76AF840EAE070FF
:1013FC0008BD08B5007CFFF75BF820EAE07008BD7B
:10140C0008B5007CFFF74CF820EAE07008BD38B551
:10141C000446007C0D46FFF74BF8002801DC607C8D
:10142C0028B12946207CFFF753F820EAE07038BD3C
:10143C00007CFFF755B810B50446142100F007FAEC
:10144C00204610BD10B54FF47A73044608460021AF
:10145C00C4E90113044B2074236001231146637407
:10146C00FFF70EF8204610BDDC1A08080022007C9D
:10147C00FFF70EB810B504461422002100F00AFA4A
:10148C00054B20466360054BE36040F2011323815A
:10149C008123238210BD00BFDC000020DD01002071
:1014AC0030B50F4D87B001A8FFF7E4FF2978BFF3E3
:1014BC005B8F11F0010410D12846FEF7EAFD60B1F4
:1014CC00214601AA0748FFF7BDFF2846FEF7E6FDB7
:1014DC00054A0649034800F0B5F9024807B030BD8B
:1014EC00AC000020B400002068000020DD130808C8
:1014FC0010B504461422002100F0CCF9054B20460F
:10150C006360054BE36040F2011323818123238246
:10151C0010BD00BF5E0200205F03002010B50F4C11
:10152C0086B001A8FFF7E4FF2378BFF35B8FDB07DE
:10153C0010D42046FEF7ADFD60B1012101AA084888
:10154C00FFF780FF2046FEF7A9FD064A064904482E
:10155C0000F078F9024806B010BD00BFB0000020C2
:10156C00C800002068000020DD1308080022406835
:10157C001146FFF71BB8F0B5002685B0044610469F
:10158C000F461546039600F0D4F97B6881B200969D
:10159C00284603AAFEF76CFF30B131462046FFF710
:1015AC00F7FE204605B0F0BD204603A9FFF7E8FE84
:1015BC00F7E7002240681146FFF718B80022406890
:1015CC001146FFF723B800224068FFF717B8002236
:1015DC00406881F00101FFF701B8002340681A460A
:1015EC001946FEF7EBBF002240681146FEF7CEBF4E
:1015FC00002202214068FEF7D1BF002340681A4642
:10160C00FEF7BCBF10B52824074B22461846002114
:10161C0000F040F94FF0FF3242600422034B04808B
:10162C005A60034A1A6010BDE8030020E003002052
:10163C000C1B080870474174704708B5007CFEF716
:10164C000FFF20EAE07008BD08B5007CFEF7E8FE4D
:10165C0020EAE07008BD08B5007CFEF7F1FE40EA18
:10166C00E07008BD08B5007CFEF7E2FE40EAE070D1
:10167C0008BD007CFEF7ECBE70B5467C04460D46FA
:10168C002EB12946207CBDE87040FEF7C1BE007C1F
:10169C00FEF7E6FE0028F4DC304670BD10B50446BB
:1016AC00142100F0D4F8204610BD00004FF0000CBF
:1016BC0010B50446084611464FF47A72C4E901C2CB
:1016CC00044A20742260012262741A46FEF798FEC6
:1016DC00204610BD401B080838B50D4D2978BFF3C6
:1016EC005B8F11F0010411D12846FEF7D2FC68B1D2
:1016FC002146084A084B0948FFF7D8FF2846FEF751
:10170C00CDFC074A0749054800F09CF8034838BD52
:10171C001004002014040020980400201C05002054
:10172C00680000204116080810B5836804460BB900
:10173C0000F091F8C3689847A3681BB103222146B7
:10174C00204698472046BDE81040102100F07FB895
:10175C00002340681A46FEF711BF002202214068A0
:10176C00FEF71CBF002240681146FEF70FBF002297
:10177C0040681146FEF71ABF002340681A46194606
:10178C00FEF71CBF002340681A461946FEF71EBF21
:10179C000022406881F00101FEF720BF0022406862
:1017AC00FEF72CBF002240681146FEF72FBF002227
:1017BC0040681146FEF71ABF70B51546002686B074
:1017CC00044604A8FFF7D4FD2846039600F0B1F8B0
:1017DC000A4B009681B25B68284603AAFEF748FEC6
:1017EC0030B131462046FFF7D3FD204606B070BD20
:1017FC00204603A9FFF7C4FDF7E700BFE003002074
:10180C00024B034A1A6000225A60704730050020D0
:10181C00701B0808002313B5074C1A4619462046BE
:10182C000093FFF7C7FD2046044A054902B0BDE806
:10183C00104000F007B800BF3C05002068000020F5
:10184C00391308080B460146184600F007B8FEF796
:10185C001EBCFEF71ABC08B5FEF730FF10B50446E7
:10186C000448134620B10A4602202146AFF30080FB
:10187C0010BD00BF000000000A44914200F1FF338C
:10188C0000D1704710B511F8014B914203F8014F8C
:10189C00F9D110BD03460244934200D1704703F8BE
:1018AC00011BF9E738B50D4B04461D68AB6B7BB9D2
:1018BC001820FEF7E3FE0A4A0A4BA863C0E900238E
:1018CC00094B012283600B2383810023C0E904238D
:1018DC000022AB6B1C615A6138BD00BF04000020B4
:1018EC000E33CDAB34126DE6ECDE0500034611F879
:1018FC00012B03F8012B002AF9D17047024B01464A
:10190C00186800F003B800BF0400002070B504464E
:10191C0008460D4600F00DF8461C31462046FEF7F1
:10192C00D5FE044618B132462946FFF7A5FF2046DE
:10193C0070BD034613F8012B002AFBD1181A01388D
:10194C00704700001D0008085D00080885000808A5
:10195C0089000808000000005A65726F20736C65DE
:10196C0065702074696D652C2061646A7573746987
:10197C006E6720746F203130207365636F6E6473F3
:10198C0020736C6565702074696D652E00476F69F6
:10199C006E6720746F20736C65657020666F7220A3
:1019AC002564206D696E75746573202564207365DC
:1019BC00636F6E64732E00436F6E6E656374696E35
:1019CC006720746F2063656C6C756C6172202E2EB1
:1019DC002E2000436F756C646E277420636F6E6EDF
:1019EC0065637420746F2063656C6C756C61722E0A
:1019FC00004F4B2E00436F6E6E656374696E6720EB
:101A0C00746F20636C6F7564202E2E2E2000436F34
:101A1C00756C646E277420636F6E6E6563742074CE
:101A2C006F20436C6F75642E0063656C6C3A2000FC
:101A3C002C2020636C6F75643A2000636F6E6E65AA
:101A4C00637454696D6500776972696E67005379C8
:101A5C007374656D20736C65657020636F6E666959
:101A6C006775726174696F6E20697320696E766137
:101A7C006C69642E006170700025592D256D2D2523
:101A8C00645425483A254D3A2553257A00617363F1
:101A9C0074696D650000000000000000000000008B
:101AAC00D90D0808DF0D08081D0E0808ED0D0808F3
:101ABC00DB0D0808000000000000000049130808B6
:101ACC00391308083B130808000000000000000050
:101ADC00DD130808431408081B140808AD0A08088D
:101AEC000D140808DF130808EF1308083D14080844
:101AFC00FF130808D91308080000000000000000BC
:101B0C0007160808FD150808F315080879150808C4
:101B1C00E7150808F7000808DB150808D3150808AE
:101B2C00C9150808BF15080883150808000000002F
:101B3C000000000041160808A916080885160808B8
:101B4C00AD0A080855160808711608086316080827
:101B5C007F160808431608084716080800000000FE
:101B6C00000000005D1708086717080871170808BF
:101B7C007B17080885170808911708089D1708088F
:101B8C00A9170808B1170808BB170808C5170808D3
:101B9C0000000000B10308082D080808ED0B080828
:101BAC00FD0B0808590C0808111608080D18080830
:041BBC0021180808DC
:041BC0000000000021
:101BC400991A080808000020000000000000000026
:101BD4000000000000000000000000000000000001
:101BE40000000000000000000000000000000000F1
:101BF40000000000000000000000000000000000E1
:101C040000000000000000000000000000000000D0
:101C140000000000000000000000000000000000C0
:081C24000000000000000000B8
:101C2C00FFFFFFFF00000102030405060708090A75
:101C3C000B0C0D0E0F101112131415161718191A70
:081C4C001B1C1D1E1F202800B7
:041C54007856341278
:040000050808001CCB
:00000001FF
